S015000041726475696E6F44756546756E2E73726563F6
S214080000E0260720A5080800A3080800A30808009B
S214080010A3080800A3080800A308080000000000BA
S214080020000000000000000000000000990A080018
S214080030A308080000000000E10A08001D0B0800DD
S214080040A3080800A3080800A3080800A3080800D7
S214080050A3080800A3080800A3080800A3080800C7
S214080060A3080800A3080800000000000907080005
S2140800701D070800310708004507080000000000B3
S21408008000000000A3080800A3080800A30808004A
S214080090A3080800A3080800FD0308000D040800CC
S2140800A0A308080000000000A3080800A30808002A
S2140800B0A3080800A3080800A3080800A308080067
S2140800C0A3080800A3080800A3080800A308080057
S2140800D0A3080800A3080800A3080800A308080047
S2140800E0A3080800A3080800A3080800A308080037
S2140800F0A308080010B5054C237833B9044B13B190
S2140801000448AFF300800123237010BD6405072060
S21408011000000000981108000C4B43B10C4810B5BD
S2140801200C49AFF300800C48036823B910BD0A4891
S214080130036833B97047094B002BF7D0BDE8104069
S2140801401847064B002BF5D0184700BF00000000E4
S214080150981108006805072098110800000000009C
S21408016010B50E480E4B98473E2100200D4B984779
S2140801700D4CA0470028FCD00C4B98470C4A0D4B5A
S2140801809A620D4CA0470028FCD010200B4B9847CD
S2140801900B4B98470148024B984710BD00BD010518
S2140801A0A5000720BD070800110808002108080058
S2140801B0013F0D2000060E403108080059070800C8
S2140801C03D0908002DE9F04383B007460023019354
S2140801D00301804AD55828467F4B98470646284646
S2140801E07E4B9847064016F4005F31D14FF0000862
S2140801F016F4805F7ED116F4507F02D1B8F1000F56
S2140802001FD0744B03EB071340F202215868744B57
S214080210984716F4807F04BF02232B604FF40051E2
S2140802202846704CA0474FF480512846A0476E4B8E
S21408023003EBC707786820B1002301AA19466B4C60
S214080240A047019B002B40F0BE8003B0BDE8F083BA
S214080250604B03EB07134FF400715868604B9847E0
S2140802604FF4005128465F4B984700242B6A13F03A
S214080270040F06D10134B4F1FF3FF7D14FF001085F
S21408028001E04FF0000802232B60594B03EBC7022E
S21408029053F837305268134413F8013C6B632B6AE3
S2140802A013F0010F0DD10134B4F1FF3FF7D14E4BD7
S2140802B003EBC7035868002800F088804FF0010851
S2140802C004E0494B03EBC703586828B1002301AA8A
S2140802D01946DFF81891C847B4F1FF3F88D0424B5B
S2140802E053F83700002883D0002301AA19463F4C4C
S2140802F0A0477DE7374B03EB071302215868384BB6
S21408030098474FF480512846364B984700242B6A66
S21408031013F0020F03D10134B4F1FF3FF7D10223E3
S2140803202B60334B53F8372003EBC7035968286B09
S214080330531803F8020C2B6A13F0020F20D101346D
S214080340B4F1FF3FF7D1284B03EBC70358680028E2
S2140803503FF451AF002301AA1946DFF89090C8472A
S214080360B4F1FF3F3FF447AF224B53F8370000285D
S2140803703FF441AF002301AA19461C4CA0473AE7B0
S214080380B4F1FF3F0ED02B6B0A4402F8013C002460
S2140803902B6A13F0010F0FD10134B4F1FF3FF7D1E8
S2140803A04FF00108104B03EBC703586800283FF4CA
S2140803B022AF4FF0FF34CDE70B4B03EBC70358686B
S2140803C00028C7D1CCE70C4B98473EE74FF001080A
S2140803D00EE700BF501108009B0808009F08080099
S2140803E09D04080095080800A0050720B10B080022
S2140803F09005072080050720B90A080008B50020E0
S214080400014B984708BD00BFC501080008B5012084
S214080410014B984708BD00BFC501080010B54FF44A
S2140804200042164B5A600B20154CA0470C20A047DC
S2140804300D20A0470E20A0474FF060513B20114CDE
S214080440A0474FF060515520A0474FF06051562006
S214080450A0470D496820A0470C495C20A0470C4AD5
S2140804604FF440710B480C4B98474FF000612B2017
S214080470A0474FF000612A20A04710BD501A0E4032
S214080480410808004D0508007900002801000028EA
S21408049001000008000E0E401D06080021F4FE713B
S2140804A021F001018905890D016270474264B1F1A6
S2140804B0805F16D00BD849B1B1F1006F05D1036F34
S2140804C0016F0B4023EA0203036742607047B1F1ED
S2140804D0405FFBD0B1F1605FF8D0B1F1205FF4D196
S2140804E07047036F13430367EFE7416412F0010F89
S2140804F014BF4166016612F00A0F14BF016241621A
S21408050012F0020F07D112F0080F18BFC0F88410B7
S214080510416101607047C0F88010F9E710B4019C8B
S214080520416444B9016643B1016542B9416301615A
S214080530016010BC70474166F5E74165F5E7016361
S214080540F5E7C06C7047806C7047000070B582B0E5
S2140805500D46430903F5001303F207735C0201F026
S214080560F043B3F1205F31D016D8B3F1006F1BD03B
S214080570B3F1805F16D100F01F0001268640324690
S2140805804FF080512046224B984715F0010F14BFB4
S21408059066662666012017E0B3F1405F21D0B3F106
S2140805A0605F1ED000200FE000F01F000126864086
S2140805B032464FF000612046154B984715F0010F5C
S2140805C014BF66662666012002B070BD00F01F01E3
S2140805D001262A4606FA01F120460E4B9847304671
S2140805E0F2E705F0605200F01F01012605EA06034F
S2140805F00093C5F38003B2F1605F14BF00220122A6
S21408060006FA01F12046044CA0473046DCE700BF56
S214080610AD040800EB0408001D05080070B582B09C
S21408062005460E46144602F0F043B3F1205F27D085
S21408063011D8B3F1006F16D0B3F1805F11D10A4616
S2140806404FF08051194B984714F0010F14BF6E668F
S2140806502E66012012E0B3F1405F15D0B3F1605F5B
S21408066012D000200AE00A464FF000610F4B984768
S21408067014F0010F14BF6E662E66012002B070BD1E
S2140806800B4B98470120F9E704F0605204F0010389
S2140806900093C4F38003B2F1605F14BF0022012206
S2140806A031462846034CA0470120E7E7AD0408007A
S2140806B0EB0408001D0508002DE9F04104468846AD
S2140806C00E4B9847054620460D4B9847054013D0D5
S2140806D00C4C04F1600603E0B4420DD010345DB152
S2140806E020684045F8D161682942F5D0E368984704
S2140806F0636825EA0305EFE7BDE8F08143050800CF
S21408070047050800B005072008B50B210148024B2D
S214080710984708BD000E0E40B906080008B50C211B
S2140807200148024B984708BD00100E40B90608005D
S21408073008B50D210148024B984708BD00120E4027
S214080740B906080008B50E210148024B984708BDAF
S21408075000140E40B9060800174A136B23F07003FE
S21408076018431063936E13F0080F0AD14FF4006312
S21408077011498A6E12F0080F03D1013BF9D1012006
S21408078070470D4A136B23F0030343F00203136309
S214080790936E13F0080F0AD14FF4006306498A6E69
S2140807A012F0080F05D1013BF9D10120704700204F
S2140807B070470020704700BF00060E40C8B9114AAF
S2140807C0136A090289B223F45C1323F0030343F483
S2140807D05C1343F001030B431362936E13F0010F8F
S2140807E0FBD0084A136A43F09B7343F480331362C2
S2140807F0704704490B6A044A1A40044B13430B62B9
S214080800704700BF00060E40FCFFC8FE0200370116
S214080810024B986E00F48030704700BF00060E400A
S2140808204FF00052014B9A62704700BF00060E4018
S214080830024B986E00F00200704700BF00060E409C
S2140808402C281ED81F280CD8114B9A6901238340E0
S214080850934318D0012303FA00F00D4B18610020CB
S214080860704720380A4BD3F8082101238340934366
S2140808700BD0012303FA00F0054BC3F80001002053
S214080880704701207047002070470020704700BF5F
S21408089000060E408162036A7047006A7047C06AA5
S2140808A07047FEE708B51C4B1C4A9A4210D01C4BF2
S2140808B0194A9A420CD2013B9B1A23F003030433CD
S2140808C01344164951F8040B42F8040B9A42F9D11E
S2140808D0144B154A9A420AD2013B9B1A23F003038B
S2140808E004331344002142F8041B9342FBD10F4BF8
S2140808F023F0604222F07F020D498A6003F16043CC
S214080900B3F5801F03D28B6843F000538B60094B06
S2140809109847094B9847FEE70000072098110800FB
S21408092064050720E0060720640507200000080085
S21408093000ED00E0F50E0800DD0E08003D4B1B6BD1
S21408094003F00303032B0ED8DFE803F0021C383845
S214080950394B5B6913F0800F14BF4FF400424FF415
S214080960FA42364B1A60334B1B6B03F07003702B3E
S21408097057D0304B1A6B3149C2F302120B68D3407A
S2140809800B6070472B4B1B6A13F0807F03D02C4AF2
S2140809902A4B1A60E7E72B4A284B1A60254B1B6A36
S2140809A003F07003102B05D0202BDCD1244A234BF0
S2140809B01A60D8E7244A214B1A60D4E71D4B1B6AF5
S2140809C013F0807F0CD01E4A1C4B1A60194B1B6B09
S2140809D003F00303022B16D01C4A184B1A60C2E712
S2140809E0184A164B1A60134B1B6A03F07003102B39
S2140809F005D0202BEAD1124A104B1A60E6E7124AB5
S214080A000E4B1A60E2E70B4A916A926A0B48C1F3EA
S214080A100A41036801FB0333D2B2B3FBF2F3036067
S214080A20A1E7064A13680A49A1FB03135B0813608B
S214080A30704700BF00060E40101A0E402C01072013
S214080A40001BB70000093D0000127A00001C4E0E7D
S214080A50ABAAAAAA43685A684A6042688A605A6873
S214080A60916059604160086103680133036070470C
S214080A70436882689A60836842685A6003695A685D
S214080A80904204BF82685A60002202611A68013ADE
S214080A901A60186870470000064B19680868B0E8BE
S214080AA0F00F80F309884FF0000080F311884EF0AD
S214080AB00D0E7047200607204FF08052014B1A6033
S214080AC0704700BF04ED00E0EFF311804FF0A0017F
S214080AD081F311887047002080F311887047000062
S214080AE0EFF309800C4B1A6820E9F00F10602DE927
S214080AF008404FF0A00080F3118800F035F94FF059
S214080B00000080F31188BDE8084019680868B0E856
S214080B10F00F80F3098870472006072008B54FF0C5
S214080B208052054B1A60054B9847054B984700209E
S214080B30044B984708BD00BF04ED00E0C90A08004A
S214080B40410C0800D90A080010B50446036C5BB9C6
S214080B5003681BB1A36B0133A36310BD4068124B37
S214080B60984700236360F5E76AB91A4680680F4B12
S214080B709847A368226C1344A36062689342E9D33B
S214080B802368A360E6E71A46C068084B9847226CB5
S214080B905242E3681344E36021688B42DAD2636802
S214080BA01A44E260D6E700BF8D0E0800450F08001D
S214080BB02DE9F04190B10E4615469846044689B18F
S214080BC01B4B98470746A26BE36B9A4211D3002447
S214080BD03846184B98472046BDE8F081144B98478E
S214080BE000BFFDE7036C002BEAD0114B984700BF07
S214080BF0FDE74246314620460F4B9847A36CB3F1B3
S214080C00FF3F0AD1636A6BB104F124000B4B984787
S214080C1050B15DB101242C60DAE7A36C0133A364FC
S214080C200124D5E70124D3E70124D1E70124CFE73F
S214080C30C90A0800D90A0800490B0800090E080066
S214080C403D4B1B68002B6FD12DE9F0413B4B1A68D2
S214080C5001321A601B68ABB9394B1B681B68002B3E
S214080C6028D1374B1968374A10681860116036491A
S214080C700A6801320A601B681B68FBB94FF0FF322E
S214080C80324B1A602D4B1A68304B1B689A4250D369
S214080C902B4B1B681B68CBB1294B1B68DB68DC68D1
S214080CA06368264A1268934216D8294E294FDFF8F9
S214080CB0B4802FE0284B984700BFFDE7204B1B6801
S214080CC0DB68DB685A68214B1A60DBE74FF0FF32B7
S214080CD01E4B1A60BDE8F0811C4A1360BDE8F0811F
S214080CE0E06A3B68984288BF386000EB8000294677
S214080CF008EB8000194B9847114B1B681B68002BA4
S214080D00E4D00F4B1B68DB68DC6863680B4A126824
S214080D109342E1D8251D2846B047A36A002BDFD0AA
S214080D2004F11800B047DBE70D4A13680133136077
S214080D307047BDE8F08100BF94060720B806072074
S214080D402406072028060720A006072030010720CB
S214080D50710A080098060720C90A0800550A0800FC
S214080D60900607202C060720214B1B68EBB910B508
S214080D70204B1B6803EB83039B001F4AD358C3B959
S214080D801C4B1B686BB11B4A1B491368013B13605D
S214080D90136803EB830351F8233053B91368002B09
S214080DA0F3D1164B984700BFFDE70122144B1A6093
S214080DB07047104B1B68104A9900C81802EB800051
S214080DC0446864684460194402460832944209D06C
S214080DD003EB8303084A02EB83035B68DA68094B74
S214080DE01A6010BD6068044A02EB81025060EFE7A3
S214080DF094060720980607202C060720C90A08002C
S214080E009C0607202006072038B5C368DC681CB394
S214080E1004F118052846154B9847154B1B68FBB96F
S214080E20251D2846114B9847E06A124B1B689842C6
S214080E3084BF104B186000EB800029460E4B03EB6E
S214080E4080000E4B98470E4B1B68E06ADB6A984298
S214080E5034BF0020012038BD0A4B984700BFFDE785
S214080E6029460948054B9847EDE700BF710A080070
S214080E7094060720980607202C060720550A08001F
S214080E8020060720C90A0800A4060720E8B138B5D6
S214080E900446C16A826C914216D0051D28460B4B43
S214080EA09847A06CE062C0F10503A361084B1B6875
S214080EB0984284BF064B186000EB80002946054B15
S214080EC003EB8000044B984738BD7047710A08004A
S214080ED0980607202C060720550A080008B5034B75
S214080EE09847034B9847002008BD00BF61010800DB
S214080EF01D04080070B50F4E0F4D761BB61018BFB0
S214080F00002405D0013455F8043B9847A642F9D189
S214080F100A4E0B4D00F02EF9761BB61018BF0024AB
S214080F2006D0013455F8043B9847A642F9D170BD5F
S214080F3070BD00BF801108008011080088110800E5
S214080F4080110800844641EA000313F0030349D1E0
S214080F50403A23D30B6803604B6843608B68836012
S214080F60CB68C3600B6903614B6943618B69836116
S214080F70CB69C3610B6A03624B6A43628B6A8362FE
S214080F80CB6AC3620B6B03634B6B43638B6B8363E6
S214080F90CB6BC36340304031403ADBD230320BD3A0
S214080FA00B6803604B6843608B688360CB68C360DC
S214080FB010301031103AF3D20C3205D351F8043BF6
S214080FC040F8043B043AF9D2043208D0D2071CBFD2
S214080FD011F8013B00F8013B01D30B8803806046FB
S214080FE0704700BF082A13D38B07B1D010F003034D
S214080FF0AED0C3F10403D21ADB071CBF11F8013BBD
S21408100000F8013BA4D331F8023B20F8023B9FE7E7
S214081010043AD9D3013A11F8013B00F8013BF9D25A
S2140810200B7803704B7843708B78837060467047F4
S214081030024B13B1024800F005B8704700000000E4
S21408104051100800002301461A46184600F01EB83C
S21408105038B50A4C0A4D641BA4100AD004F1804324
S214081060013B05EB8305013C55F804399847002CED
S214081070F9D1BDE8384000F087B800BF98110800DD
S21408108094110800704700BF704700BF2DE9F84369
S2140810902C4D0646286898460F469146FFF7F2FFFD
S2140810A0294B1C68D4F84831002B3ED05A681F2AB2
S2140810B01CDC02F1010E76B1012103EB8204C4F8B0
S2140810C08890D3F8880191400843022EC3F8880117
S2140810D0C4F8088123D00232C3F804E0286843F82D
S2140810E02270FFF7D1FF0020BDE8F883174B0BB33B
S2140810F04FF4C870AFF300800346D8B10020D4F888
S21408110048114FF0010E586019600246C4F848317D
S214081110C3F88801C3F88C01002EDCD0CCE7D3F8DE
S2140811208C010143C3F88C11D5E704F5A673C4F8FF
S2140811304831BBE72868FFF7A7FF4FF0FF30BDE848
S214081140F88300BF60050720701108000000000043
S21408115000C0084000C10840160000001600000045
S21408116000000940000109401700000017000000B1
S21408117038010720F8B500BFF8BC08BC9E46704783
S2140811803110080019010800F8B500BFF8BC08BC03
S20C0811909E467047F5000800B2
S2140811984FF48063204A136002F5007213601F4BF1
S2140811A81B6A13F0807F07D11D4A1C4B1A621A4621
S2140811B8936E13F0010FFBD01A4A184B1A621A4698
S2140811C8936E13F4803FFBD0144A136B23F0030383
S2140811D843F001031363936E13F0080FFBD0124A0B
S2140811E80E4B9A621A46936E13F0020FFBD0112222
S2140811F80A4B1A631A46936E13F0080FFBD012228E
S214081208064B1A631A46936E13F0080FFBD0074A64
S214081218074B1A60704700BF000A0E4000060E40CB
S2140812280908370009083701013F0D2000BD0105E8
S2140812382C0107201B4B984215D91B4B984219D9E5
S2140812481A4B98421ED91A4B984223D9194B9842DA
S21408125894BF4FF480634FF4A063174A136002F5EF
S2140812680072136070470023134A136002F5007271
S214081278136070474FF480730F4A136002F50072C4
S214081288136070474FF400730B4A136002F5007238
S214081298136070474FF44073074A136002F50072EC
S2140812A813607047BFEA21017FF0FA02FF8FD00368
S2140812B8FFB3C4047F4A5D05000A0E4000093D00D6
S2140812C8FFFFFFFF000000000000000024040720BE
S2140812D88C040720F4040720000000000000000023
S2140812E800000000000000000000000000000000E9
S2140812F800000000000000000000000000000000D9
S21408130800000000000000000000000000000000C8
S21408131800000000000000000000000000000000B8
S21408132800000000000000000000000000000000A8
S2140813380000000000000000000000000000000098
S2140813480000000000000000000000000000000088
S2140813580000000000000000000000000000000078
S2140813680000000000000000000000000000000068
S21408137801000000000000000E33CDAB34126DE605
S214081388ECDE05000B00000000000000000000006E
S2140813980000000000000000000000000000000038
S2140813A80000000000000000000000000000000028
S2140813B80000000000000000000000000000000018
S2140813C80000000000000000000000000000000008
S2080816F8BC060720F8
S8040808A546
