
ArduinoDueFun.elf:     file format elf32-littlearm

Sections:
Idx Name          Size      VMA       LMA       File off  Algn
  0 .text         00001198  00080000  00080000  00010000  2**2
                  CONTENTS, ALLOC, LOAD, READONLY, CODE
  1 .relocate     00000564  20070000  00081198  00020000  2**3
                  CONTENTS, ALLOC, LOAD, CODE
  2 .bss          0000017c  20070564  000816fc  00020564  2**2
                  ALLOC
  3 .stack        00002000  200706e0  00081878  00020564  2**0
                  ALLOC
  4 .ARM.attributes 00000029  00000000  00000000  00020564  2**0
                  CONTENTS, READONLY
  5 .comment      00000059  00000000  00000000  0002058d  2**0
                  CONTENTS, READONLY
  6 .debug_info   000134cb  00000000  00000000  000205e6  2**0
                  CONTENTS, READONLY, DEBUGGING
  7 .debug_abbrev 00002be3  00000000  00000000  00033ab1  2**0
                  CONTENTS, READONLY, DEBUGGING
  8 .debug_loc    00005bf8  00000000  00000000  00036694  2**0
                  CONTENTS, READONLY, DEBUGGING
  9 .debug_aranges 000008e8  00000000  00000000  0003c28c  2**0
                  CONTENTS, READONLY, DEBUGGING
 10 .debug_ranges 00000918  00000000  00000000  0003cb74  2**0
                  CONTENTS, READONLY, DEBUGGING
 11 .debug_macro  00017f5a  00000000  00000000  0003d48c  2**0
                  CONTENTS, READONLY, DEBUGGING
 12 .debug_line   0000cb34  00000000  00000000  000553e6  2**0
                  CONTENTS, READONLY, DEBUGGING
 13 .debug_str    000688eb  00000000  00000000  00061f1a  2**0
                  CONTENTS, READONLY, DEBUGGING
 14 .debug_frame  00001644  00000000  00000000  000ca808  2**2
                  CONTENTS, READONLY, DEBUGGING

Disassembly of section .text:

00080000 <exception_table>:
   80000:	e0 26 07 20 a5 08 08 00 a3 08 08 00 a3 08 08 00     .&. ............
   80010:	a3 08 08 00 a3 08 08 00 a3 08 08 00 00 00 00 00     ................
	...
   8002c:	99 0a 08 00 a3 08 08 00 00 00 00 00 e1 0a 08 00     ................
   8003c:	1d 0b 08 00 a3 08 08 00 a3 08 08 00 a3 08 08 00     ................
   8004c:	a3 08 08 00 a3 08 08 00 a3 08 08 00 a3 08 08 00     ................
   8005c:	a3 08 08 00 a3 08 08 00 a3 08 08 00 00 00 00 00     ................
   8006c:	09 07 08 00 1d 07 08 00 31 07 08 00 45 07 08 00     ........1...E...
	...
   80084:	a3 08 08 00 a3 08 08 00 a3 08 08 00 a3 08 08 00     ................
   80094:	a3 08 08 00 fd 03 08 00 0d 04 08 00 a3 08 08 00     ................
   800a4:	00 00 00 00 a3 08 08 00 a3 08 08 00 a3 08 08 00     ................
   800b4:	a3 08 08 00 a3 08 08 00 a3 08 08 00 a3 08 08 00     ................
   800c4:	a3 08 08 00 a3 08 08 00 a3 08 08 00 a3 08 08 00     ................
   800d4:	a3 08 08 00 a3 08 08 00 a3 08 08 00 a3 08 08 00     ................
   800e4:	a3 08 08 00 a3 08 08 00 a3 08 08 00 a3 08 08 00     ................

000800f4 <__do_global_dtors_aux>:
   800f4:	b510      	push	{r4, lr}
   800f6:	4c05      	ldr	r4, [pc, #20]	; (8010c <__do_global_dtors_aux+0x18>)
   800f8:	7823      	ldrb	r3, [r4, #0]
   800fa:	b933      	cbnz	r3, 8010a <__do_global_dtors_aux+0x16>
   800fc:	4b04      	ldr	r3, [pc, #16]	; (80110 <__do_global_dtors_aux+0x1c>)
   800fe:	b113      	cbz	r3, 80106 <__do_global_dtors_aux+0x12>
   80100:	4804      	ldr	r0, [pc, #16]	; (80114 <__do_global_dtors_aux+0x20>)
   80102:	f3af 8000 	nop.w
   80106:	2301      	movs	r3, #1
   80108:	7023      	strb	r3, [r4, #0]
   8010a:	bd10      	pop	{r4, pc}
   8010c:	20070564 	.word	0x20070564
   80110:	00000000 	.word	0x00000000
   80114:	00081198 	.word	0x00081198

00080118 <frame_dummy>:
   80118:	4b0c      	ldr	r3, [pc, #48]	; (8014c <frame_dummy+0x34>)
   8011a:	b143      	cbz	r3, 8012e <frame_dummy+0x16>
   8011c:	480c      	ldr	r0, [pc, #48]	; (80150 <frame_dummy+0x38>)
   8011e:	b510      	push	{r4, lr}
   80120:	490c      	ldr	r1, [pc, #48]	; (80154 <frame_dummy+0x3c>)
   80122:	f3af 8000 	nop.w
   80126:	480c      	ldr	r0, [pc, #48]	; (80158 <frame_dummy+0x40>)
   80128:	6803      	ldr	r3, [r0, #0]
   8012a:	b923      	cbnz	r3, 80136 <frame_dummy+0x1e>
   8012c:	bd10      	pop	{r4, pc}
   8012e:	480a      	ldr	r0, [pc, #40]	; (80158 <frame_dummy+0x40>)
   80130:	6803      	ldr	r3, [r0, #0]
   80132:	b933      	cbnz	r3, 80142 <frame_dummy+0x2a>
   80134:	4770      	bx	lr
   80136:	4b09      	ldr	r3, [pc, #36]	; (8015c <frame_dummy+0x44>)
   80138:	2b00      	cmp	r3, #0
   8013a:	d0f7      	beq.n	8012c <frame_dummy+0x14>
   8013c:	e8bd 4010 	ldmia.w	sp!, {r4, lr}
   80140:	4718      	bx	r3
   80142:	4b06      	ldr	r3, [pc, #24]	; (8015c <frame_dummy+0x44>)
   80144:	2b00      	cmp	r3, #0
   80146:	d0f5      	beq.n	80134 <frame_dummy+0x1c>
   80148:	4718      	bx	r3
   8014a:	bf00      	nop
   8014c:	00000000 	.word	0x00000000
   80150:	00081198 	.word	0x00081198
   80154:	20070568 	.word	0x20070568
   80158:	00081198 	.word	0x00081198
   8015c:	00000000 	.word	0x00000000

00080160 <sysclk_init>:
	pmc_disable_udpck();
}
#endif // CONFIG_USBCLK_SOURCE

void sysclk_init(void)
{
   80160:	b510      	push	{r4, lr}
	struct pll_config pllcfg;

	/* Set flash wait state to max in case the below clock switching. */
	system_init_flash(CHIP_FREQ_CPU_MAX);
   80162:	480e      	ldr	r0, [pc, #56]	; (8019c <sysclk_init+0x3c>)
   80164:	4b0e      	ldr	r3, [pc, #56]	; (801a0 <sysclk_init+0x40>)
   80166:	4798      	blx	r3
		pmc_switch_mainck_to_fastrc(CKGR_MOR_MOSCRCF_12_MHz);
		break;


	case OSC_MAINCK_XTAL:
		pmc_switch_mainck_to_xtal(PMC_OSC_XTAL,
   80168:	213e      	movs	r1, #62	; 0x3e
   8016a:	2000      	movs	r0, #0
   8016c:	4b0d      	ldr	r3, [pc, #52]	; (801a4 <sysclk_init+0x44>)
   8016e:	4798      	blx	r3
	case OSC_MAINCK_4M_RC:
	case OSC_MAINCK_8M_RC:
	case OSC_MAINCK_12M_RC:
	case OSC_MAINCK_XTAL:
	case OSC_MAINCK_BYPASS:
		return pmc_osc_is_ready_mainck();
   80170:	4c0d      	ldr	r4, [pc, #52]	; (801a8 <sysclk_init+0x48>)
   80172:	47a0      	blx	r4
 *
 * \param id A number identifying the oscillator to wait for.
 */
static inline void osc_wait_ready(uint8_t id)
{
	while (!osc_is_ready(id)) {
   80174:	2800      	cmp	r0, #0
   80176:	d0fc      	beq.n	80172 <sysclk_init+0x12>
static inline void pll_enable(const struct pll_config *p_cfg, uint32_t ul_pll_id)
{
	Assert(ul_pll_id < NR_PLLS);

	if (ul_pll_id == PLLA_ID) {
		pmc_disable_pllack(); // Always stop PLL first!
   80178:	4b0c      	ldr	r3, [pc, #48]	; (801ac <sysclk_init+0x4c>)
   8017a:	4798      	blx	r3
		PMC->CKGR_PLLAR = CKGR_PLLAR_ONE | p_cfg->ctrl;
   8017c:	4a0c      	ldr	r2, [pc, #48]	; (801b0 <sysclk_init+0x50>)
   8017e:	4b0d      	ldr	r3, [pc, #52]	; (801b4 <sysclk_init+0x54>)
   80180:	629a      	str	r2, [r3, #40]	; 0x28
static inline uint32_t pll_is_locked(uint32_t ul_pll_id)
{
	Assert(ul_pll_id < NR_PLLS);

	if (ul_pll_id == PLLA_ID) {
		return pmc_is_locked_pllack();
   80182:	4c0d      	ldr	r4, [pc, #52]	; (801b8 <sysclk_init+0x58>)
   80184:	47a0      	blx	r4
 */
static inline int pll_wait_for_lock(unsigned int pll_id)
{
	Assert(pll_id < NR_PLLS);

	while (!pll_is_locked(pll_id)) {
   80186:	2800      	cmp	r0, #0
   80188:	d0fc      	beq.n	80184 <sysclk_init+0x24>
	else if (CONFIG_SYSCLK_SOURCE == SYSCLK_SRC_PLLACK) {
		pll_enable_source(CONFIG_PLL0_SOURCE);
		pll_config_defaults(&pllcfg, 0);
		pll_enable(&pllcfg, 0);
		pll_wait_for_lock(0);
		pmc_switch_mck_to_pllack(CONFIG_SYSCLK_PRES);
   8018a:	2010      	movs	r0, #16
   8018c:	4b0b      	ldr	r3, [pc, #44]	; (801bc <sysclk_init+0x5c>)
   8018e:	4798      	blx	r3
		pll_wait_for_lock(1);
		pmc_switch_mck_to_upllck(CONFIG_SYSCLK_PRES);
	}

	/* Update the SystemFrequency variable */
	SystemCoreClockUpdate();
   80190:	4b0b      	ldr	r3, [pc, #44]	; (801c0 <sysclk_init+0x60>)
   80192:	4798      	blx	r3

	/* Set a flash wait state depending on the new cpu frequency */
	system_init_flash(sysclk_get_cpu_hz());
   80194:	4801      	ldr	r0, [pc, #4]	; (8019c <sysclk_init+0x3c>)
   80196:	4b02      	ldr	r3, [pc, #8]	; (801a0 <sysclk_init+0x40>)
   80198:	4798      	blx	r3
   8019a:	bd10      	pop	{r4, pc}
   8019c:	0501bd00 	.word	0x0501bd00
   801a0:	200700a5 	.word	0x200700a5
   801a4:	000807bd 	.word	0x000807bd
   801a8:	00080811 	.word	0x00080811
   801ac:	00080821 	.word	0x00080821
   801b0:	200d3f01 	.word	0x200d3f01
   801b4:	400e0600 	.word	0x400e0600
   801b8:	00080831 	.word	0x00080831
   801bc:	00080759 	.word	0x00080759
   801c0:	0008093d 	.word	0x0008093d

000801c4 <local_twi_handler>:
/*
 * For internal use only.
 * A common TWI interrupt handler that is called for all TWI peripherals.
 */
static void local_twi_handler(const portBASE_TYPE twi_index)
{
   801c4:	e92d 43f0 	stmdb	sp!, {r4, r5, r6, r7, r8, r9, lr}
   801c8:	b083      	sub	sp, #12
   801ca:	4607      	mov	r7, r0
	portBASE_TYPE higher_priority_task_woken = pdFALSE;
   801cc:	2300      	movs	r3, #0
   801ce:	9301      	str	r3, [sp, #4]
	uint32_t twi_status;
	Twi *twi_port;
	bool transfer_timeout = false;

	twi_port = all_twi_definitions[twi_index].peripheral_base_address;
   801d0:	0103      	lsls	r3, r0, #4
   801d2:	4a80      	ldr	r2, [pc, #512]	; (803d4 <local_twi_handler+0x210>)
   801d4:	58d5      	ldr	r5, [r2, r3]

	twi_status = twi_get_interrupt_status(twi_port);
   801d6:	4628      	mov	r0, r5
   801d8:	4b7f      	ldr	r3, [pc, #508]	; (803d8 <local_twi_handler+0x214>)
   801da:	4798      	blx	r3
   801dc:	4606      	mov	r6, r0
	twi_status &= twi_get_interrupt_mask(twi_port);
   801de:	4628      	mov	r0, r5
   801e0:	4b7e      	ldr	r3, [pc, #504]	; (803dc <local_twi_handler+0x218>)
   801e2:	4798      	blx	r3
   801e4:	4006      	ands	r6, r0

	/* Has the PDC completed a transmission? */
	if ((twi_status & TWI_SR_ENDTX) != 0UL) {
   801e6:	f416 5f00 	tst.w	r6, #8192	; 0x2000
   801ea:	d131      	bne.n	80250 <local_twi_handler+0x8c>
	bool transfer_timeout = false;
   801ec:	f04f 0800 	mov.w	r8, #0
			}
		}
	}

	/* Has the PDC completed a reception? */
	if ((twi_status & TWI_SR_ENDRX) != 0UL) {
   801f0:	f416 5f80 	tst.w	r6, #4096	; 0x1000
   801f4:	d17e      	bne.n	802f4 <local_twi_handler+0x130>
						&higher_priority_task_woken);
			}
		}
	}

	if (((twi_status & SR_ERROR_INTERRUPTS) != 0) || (transfer_timeout == true)) {
   801f6:	f416 7f50 	tst.w	r6, #832	; 0x340
   801fa:	d102      	bne.n	80202 <local_twi_handler+0x3e>
   801fc:	f1b8 0f00 	cmp.w	r8, #0
   80200:	d01f      	beq.n	80242 <local_twi_handler+0x7e>
		Stop the transmission, disable interrupts used by the peripheral, and
		ensure the peripheral access mutex is made available to tasks.  As this
		peripheral is half duplex, only the Tx peripheral access mutex exits.*/

		/* Stop the PDC */
		pdc_disable_transfer(all_twi_definitions[twi_index].pdc_base_address, PERIPH_PTCR_TXTDIS | PERIPH_PTCR_RXTDIS);
   80202:	4b74      	ldr	r3, [pc, #464]	; (803d4 <local_twi_handler+0x210>)
   80204:	eb03 1307 	add.w	r3, r3, r7, lsl #4
   80208:	f240 2102 	movw	r1, #514	; 0x202
   8020c:	6858      	ldr	r0, [r3, #4]
   8020e:	4b74      	ldr	r3, [pc, #464]	; (803e0 <local_twi_handler+0x21c>)
   80210:	4798      	blx	r3

		if (!(twi_status & TWI_SR_NACK)) {
   80212:	f416 7f80 	tst.w	r6, #256	; 0x100
			/* Do not send stop if NACK received. Handled by hardware */
			twi_port->TWI_CR = TWI_CR_STOP;
   80216:	bf04      	itt	eq
   80218:	2302      	moveq	r3, #2
   8021a:	602b      	streq	r3, [r5, #0]
		}
		twi_disable_interrupt(twi_port, TWI_IDR_ENDTX);
   8021c:	f44f 5100 	mov.w	r1, #8192	; 0x2000
   80220:	4628      	mov	r0, r5
   80222:	4c70      	ldr	r4, [pc, #448]	; (803e4 <local_twi_handler+0x220>)
   80224:	47a0      	blx	r4
		twi_disable_interrupt(twi_port, TWI_IDR_ENDRX);
   80226:	f44f 5180 	mov.w	r1, #4096	; 0x1000
   8022a:	4628      	mov	r0, r5
   8022c:	47a0      	blx	r4

		if (tx_dma_control[twi_index].peripheral_access_sem != NULL) {
   8022e:	4b6e      	ldr	r3, [pc, #440]	; (803e8 <local_twi_handler+0x224>)
   80230:	eb03 07c7 	add.w	r7, r3, r7, lsl #3
   80234:	6878      	ldr	r0, [r7, #4]
   80236:	b120      	cbz	r0, 80242 <local_twi_handler+0x7e>
			xSemaphoreGiveFromISR(
   80238:	2300      	movs	r3, #0
   8023a:	aa01      	add	r2, sp, #4
   8023c:	4619      	mov	r1, r3
   8023e:	4c6b      	ldr	r4, [pc, #428]	; (803ec <local_twi_handler+0x228>)
   80240:	47a0      	blx	r4
	has a priority equal to or higher than the currently running task (the task
	this ISR interrupted), then higher_priority_task_woken will have
	automatically been set to pdTRUE within the semaphore function.
	portEND_SWITCHING_ISR() will then ensure that this ISR returns directly to
	the higher priority unblocked task. */
	portEND_SWITCHING_ISR(higher_priority_task_woken);
   80242:	9b01      	ldr	r3, [sp, #4]
   80244:	2b00      	cmp	r3, #0
   80246:	f040 80be 	bne.w	803c6 <local_twi_handler+0x202>
}
   8024a:	b003      	add	sp, #12
   8024c:	e8bd 83f0 	ldmia.w	sp!, {r4, r5, r6, r7, r8, r9, pc}
		pdc_disable_transfer(all_twi_definitions[twi_index].pdc_base_address, PERIPH_PTCR_TXTDIS);
   80250:	4b60      	ldr	r3, [pc, #384]	; (803d4 <local_twi_handler+0x210>)
   80252:	eb03 1307 	add.w	r3, r3, r7, lsl #4
   80256:	f44f 7100 	mov.w	r1, #512	; 0x200
   8025a:	6858      	ldr	r0, [r3, #4]
   8025c:	4b60      	ldr	r3, [pc, #384]	; (803e0 <local_twi_handler+0x21c>)
   8025e:	4798      	blx	r3
		twi_disable_interrupt(twi_port, TWI_IDR_ENDTX);
   80260:	f44f 5100 	mov.w	r1, #8192	; 0x2000
   80264:	4628      	mov	r0, r5
   80266:	4b5f      	ldr	r3, [pc, #380]	; (803e4 <local_twi_handler+0x220>)
   80268:	4798      	blx	r3
		uint32_t timeout_counter = 0;
   8026a:	2400      	movs	r4, #0
			status = twi_port->TWI_SR;
   8026c:	6a2b      	ldr	r3, [r5, #32]
			if (status & TWI_SR_TXRDY) {
   8026e:	f013 0f04 	tst.w	r3, #4
   80272:	d106      	bne.n	80282 <local_twi_handler+0xbe>
			if (++timeout_counter >= TWI_TIMEOUT_COUNTER) {
   80274:	3401      	adds	r4, #1
   80276:	f1b4 3fff 	cmp.w	r4, #4294967295
   8027a:	d1f7      	bne.n	8026c <local_twi_handler+0xa8>
				transfer_timeout = true;
   8027c:	f04f 0801 	mov.w	r8, #1
   80280:	e001      	b.n	80286 <local_twi_handler+0xc2>
	bool transfer_timeout = false;
   80282:	f04f 0800 	mov.w	r8, #0
		twi_port->TWI_CR = TWI_CR_STOP;
   80286:	2302      	movs	r3, #2
   80288:	602b      	str	r3, [r5, #0]
		twi_port->TWI_THR = twis[twi_index].buffer[twis[twi_index].length-1];
   8028a:	4b59      	ldr	r3, [pc, #356]	; (803f0 <local_twi_handler+0x22c>)
   8028c:	eb03 02c7 	add.w	r2, r3, r7, lsl #3
   80290:	f853 3037 	ldr.w	r3, [r3, r7, lsl #3]
   80294:	6852      	ldr	r2, [r2, #4]
   80296:	4413      	add	r3, r2
   80298:	f813 3c01 	ldrb.w	r3, [r3, #-1]
   8029c:	636b      	str	r3, [r5, #52]	; 0x34
			status = twi_port->TWI_SR;
   8029e:	6a2b      	ldr	r3, [r5, #32]
			if (status & TWI_SR_TXCOMP) {
   802a0:	f013 0f01 	tst.w	r3, #1
   802a4:	d10d      	bne.n	802c2 <local_twi_handler+0xfe>
			if (++timeout_counter >= TWI_TIMEOUT_COUNTER) {
   802a6:	3401      	adds	r4, #1
   802a8:	f1b4 3fff 	cmp.w	r4, #4294967295
   802ac:	d1f7      	bne.n	8029e <local_twi_handler+0xda>
		if (tx_dma_control[twi_index].peripheral_access_sem != NULL) {
   802ae:	4b4e      	ldr	r3, [pc, #312]	; (803e8 <local_twi_handler+0x224>)
   802b0:	eb03 03c7 	add.w	r3, r3, r7, lsl #3
   802b4:	6858      	ldr	r0, [r3, #4]
   802b6:	2800      	cmp	r0, #0
   802b8:	f000 8088 	beq.w	803cc <local_twi_handler+0x208>
				transfer_timeout = true;
   802bc:	f04f 0801 	mov.w	r8, #1
   802c0:	e004      	b.n	802cc <local_twi_handler+0x108>
		if (tx_dma_control[twi_index].peripheral_access_sem != NULL) {
   802c2:	4b49      	ldr	r3, [pc, #292]	; (803e8 <local_twi_handler+0x224>)
   802c4:	eb03 03c7 	add.w	r3, r3, r7, lsl #3
   802c8:	6858      	ldr	r0, [r3, #4]
   802ca:	b128      	cbz	r0, 802d8 <local_twi_handler+0x114>
			xSemaphoreGiveFromISR(
   802cc:	2300      	movs	r3, #0
   802ce:	aa01      	add	r2, sp, #4
   802d0:	4619      	mov	r1, r3
   802d2:	f8df 9118 	ldr.w	r9, [pc, #280]	; 803ec <local_twi_handler+0x228>
   802d6:	47c8      	blx	r9
		if (!(timeout_counter >= TWI_TIMEOUT_COUNTER)) {
   802d8:	f1b4 3fff 	cmp.w	r4, #4294967295
   802dc:	d088      	beq.n	801f0 <local_twi_handler+0x2c>
			if (tx_dma_control[twi_index]. transaction_complete_notification_semaphore != NULL) {
   802de:	4b42      	ldr	r3, [pc, #264]	; (803e8 <local_twi_handler+0x224>)
   802e0:	f853 0037 	ldr.w	r0, [r3, r7, lsl #3]
   802e4:	2800      	cmp	r0, #0
   802e6:	d083      	beq.n	801f0 <local_twi_handler+0x2c>
				xSemaphoreGiveFromISR(
   802e8:	2300      	movs	r3, #0
   802ea:	aa01      	add	r2, sp, #4
   802ec:	4619      	mov	r1, r3
   802ee:	4c3f      	ldr	r4, [pc, #252]	; (803ec <local_twi_handler+0x228>)
   802f0:	47a0      	blx	r4
   802f2:	e77d      	b.n	801f0 <local_twi_handler+0x2c>
		pdc_disable_transfer(all_twi_definitions[twi_index].pdc_base_address, PERIPH_PTCR_RXTDIS);
   802f4:	4b37      	ldr	r3, [pc, #220]	; (803d4 <local_twi_handler+0x210>)
   802f6:	eb03 1307 	add.w	r3, r3, r7, lsl #4
   802fa:	2102      	movs	r1, #2
   802fc:	6858      	ldr	r0, [r3, #4]
   802fe:	4b38      	ldr	r3, [pc, #224]	; (803e0 <local_twi_handler+0x21c>)
   80300:	4798      	blx	r3
		twi_disable_interrupt(twi_port, TWI_IDR_ENDRX);
   80302:	f44f 5180 	mov.w	r1, #4096	; 0x1000
   80306:	4628      	mov	r0, r5
   80308:	4b36      	ldr	r3, [pc, #216]	; (803e4 <local_twi_handler+0x220>)
   8030a:	4798      	blx	r3
		uint32_t timeout_counter = 0;
   8030c:	2400      	movs	r4, #0
			status = twi_port->TWI_SR;
   8030e:	6a2b      	ldr	r3, [r5, #32]
			if (status & TWI_SR_RXRDY) {
   80310:	f013 0f02 	tst.w	r3, #2
   80314:	d103      	bne.n	8031e <local_twi_handler+0x15a>
			if (++timeout_counter >= TWI_TIMEOUT_COUNTER) {
   80316:	3401      	adds	r4, #1
   80318:	f1b4 3fff 	cmp.w	r4, #4294967295
   8031c:	d1f7      	bne.n	8030e <local_twi_handler+0x14a>
		twi_port->TWI_CR = TWI_CR_STOP;
   8031e:	2302      	movs	r3, #2
   80320:	602b      	str	r3, [r5, #0]
		twis[twi_index].buffer[(twis[twi_index].length)-2] = twi_port->TWI_RHR;
   80322:	4b33      	ldr	r3, [pc, #204]	; (803f0 <local_twi_handler+0x22c>)
   80324:	f853 2037 	ldr.w	r2, [r3, r7, lsl #3]
   80328:	eb03 03c7 	add.w	r3, r3, r7, lsl #3
   8032c:	6859      	ldr	r1, [r3, #4]
   8032e:	6b28      	ldr	r0, [r5, #48]	; 0x30
   80330:	1853      	adds	r3, r2, r1
   80332:	f803 0c02 	strb.w	r0, [r3, #-2]
			status = twi_port->TWI_SR;
   80336:	6a2b      	ldr	r3, [r5, #32]
			if (status & TWI_SR_RXRDY) {
   80338:	f013 0f02 	tst.w	r3, #2
   8033c:	d120      	bne.n	80380 <local_twi_handler+0x1bc>
			if (++timeout_counter >= TWI_TIMEOUT_COUNTER) {
   8033e:	3401      	adds	r4, #1
   80340:	f1b4 3fff 	cmp.w	r4, #4294967295
   80344:	d1f7      	bne.n	80336 <local_twi_handler+0x172>
		if (tx_dma_control[twi_index].peripheral_access_sem != NULL) {
   80346:	4b28      	ldr	r3, [pc, #160]	; (803e8 <local_twi_handler+0x224>)
   80348:	eb03 03c7 	add.w	r3, r3, r7, lsl #3
   8034c:	6858      	ldr	r0, [r3, #4]
   8034e:	2800      	cmp	r0, #0
   80350:	f43f af51 	beq.w	801f6 <local_twi_handler+0x32>
			xSemaphoreGiveFromISR(
   80354:	2300      	movs	r3, #0
   80356:	aa01      	add	r2, sp, #4
   80358:	4619      	mov	r1, r3
   8035a:	f8df 9090 	ldr.w	r9, [pc, #144]	; 803ec <local_twi_handler+0x228>
   8035e:	47c8      	blx	r9
		if  (!(timeout_counter >= TWI_TIMEOUT_COUNTER)) {
   80360:	f1b4 3fff 	cmp.w	r4, #4294967295
   80364:	f43f af47 	beq.w	801f6 <local_twi_handler+0x32>
			if (rx_dma_control[twi_index].transaction_complete_notification_semaphore != NULL) {
   80368:	4b22      	ldr	r3, [pc, #136]	; (803f4 <local_twi_handler+0x230>)
   8036a:	f853 0037 	ldr.w	r0, [r3, r7, lsl #3]
   8036e:	2800      	cmp	r0, #0
   80370:	f43f af41 	beq.w	801f6 <local_twi_handler+0x32>
				xSemaphoreGiveFromISR(
   80374:	2300      	movs	r3, #0
   80376:	aa01      	add	r2, sp, #4
   80378:	4619      	mov	r1, r3
   8037a:	4c1c      	ldr	r4, [pc, #112]	; (803ec <local_twi_handler+0x228>)
   8037c:	47a0      	blx	r4
   8037e:	e73a      	b.n	801f6 <local_twi_handler+0x32>
		if (!(timeout_counter >= TWI_TIMEOUT_COUNTER)) {
   80380:	f1b4 3fff 	cmp.w	r4, #4294967295
   80384:	d00e      	beq.n	803a4 <local_twi_handler+0x1e0>
			twis[twi_index].buffer[(twis[twi_index].length)-1] = twi_port->TWI_RHR;
   80386:	6b2b      	ldr	r3, [r5, #48]	; 0x30
   80388:	440a      	add	r2, r1
   8038a:	f802 3c01 	strb.w	r3, [r2, #-1]
			timeout_counter = 0;
   8038e:	2400      	movs	r4, #0
				status = twi_port->TWI_SR;
   80390:	6a2b      	ldr	r3, [r5, #32]
				if (status & TWI_SR_TXCOMP) {
   80392:	f013 0f01 	tst.w	r3, #1
   80396:	d10f      	bne.n	803b8 <local_twi_handler+0x1f4>
				if (++timeout_counter >= TWI_TIMEOUT_COUNTER) {
   80398:	3401      	adds	r4, #1
   8039a:	f1b4 3fff 	cmp.w	r4, #4294967295
   8039e:	d1f7      	bne.n	80390 <local_twi_handler+0x1cc>
					transfer_timeout = true;
   803a0:	f04f 0801 	mov.w	r8, #1
		if (tx_dma_control[twi_index].peripheral_access_sem != NULL) {
   803a4:	4b10      	ldr	r3, [pc, #64]	; (803e8 <local_twi_handler+0x224>)
   803a6:	eb03 03c7 	add.w	r3, r3, r7, lsl #3
   803aa:	6858      	ldr	r0, [r3, #4]
   803ac:	2800      	cmp	r0, #0
   803ae:	f43f af22 	beq.w	801f6 <local_twi_handler+0x32>
   803b2:	f04f 34ff 	mov.w	r4, #4294967295
   803b6:	e7cd      	b.n	80354 <local_twi_handler+0x190>
   803b8:	4b0b      	ldr	r3, [pc, #44]	; (803e8 <local_twi_handler+0x224>)
   803ba:	eb03 03c7 	add.w	r3, r3, r7, lsl #3
   803be:	6858      	ldr	r0, [r3, #4]
   803c0:	2800      	cmp	r0, #0
   803c2:	d1c7      	bne.n	80354 <local_twi_handler+0x190>
   803c4:	e7cc      	b.n	80360 <local_twi_handler+0x19c>
	portEND_SWITCHING_ISR(higher_priority_task_woken);
   803c6:	4b0c      	ldr	r3, [pc, #48]	; (803f8 <local_twi_handler+0x234>)
   803c8:	4798      	blx	r3
}
   803ca:	e73e      	b.n	8024a <local_twi_handler+0x86>
				transfer_timeout = true;
   803cc:	f04f 0801 	mov.w	r8, #1
   803d0:	e70e      	b.n	801f0 <local_twi_handler+0x2c>
   803d2:	bf00      	nop
   803d4:	00081150 	.word	0x00081150
   803d8:	0008089b 	.word	0x0008089b
   803dc:	0008089f 	.word	0x0008089f
   803e0:	0008049d 	.word	0x0008049d
   803e4:	00080895 	.word	0x00080895
   803e8:	200705a0 	.word	0x200705a0
   803ec:	00080bb1 	.word	0x00080bb1
   803f0:	20070590 	.word	0x20070590
   803f4:	20070580 	.word	0x20070580
   803f8:	00080ab9 	.word	0x00080ab9

000803fc <TWI0_Handler>:
#endif /* TWI */

#ifdef TWI0

void TWI0_Handler(void)
{
   803fc:	b508      	push	{r3, lr}
	local_twi_handler(0);
   803fe:	2000      	movs	r0, #0
   80400:	4b01      	ldr	r3, [pc, #4]	; (80408 <TWI0_Handler+0xc>)
   80402:	4798      	blx	r3
   80404:	bd08      	pop	{r3, pc}
   80406:	bf00      	nop
   80408:	000801c5 	.word	0x000801c5

0008040c <TWI1_Handler>:
#endif

#ifdef TWI1

void TWI1_Handler(void)
{
   8040c:	b508      	push	{r3, lr}
	local_twi_handler(1);
   8040e:	2001      	movs	r0, #1
   80410:	4b01      	ldr	r3, [pc, #4]	; (80418 <TWI1_Handler+0xc>)
   80412:	4798      	blx	r3
   80414:	bd08      	pop	{r3, pc}
   80416:	bf00      	nop
   80418:	000801c5 	.word	0x000801c5

0008041c <board_init>:
#include "conf_board.h"
#include "gpio.h"
#include "ioport.h"

void board_init(void)
{
   8041c:	b510      	push	{r4, lr}
#ifndef CONF_BOARD_KEEP_WATCHDOG_AT_INIT
	/* Disable the watchdog */
	WDT->WDT_MR = WDT_MR_WDDIS;
   8041e:	f44f 4200 	mov.w	r2, #32768	; 0x8000
   80422:	4b16      	ldr	r3, [pc, #88]	; (8047c <board_init+0x60>)
   80424:	605a      	str	r2, [r3, #4]
 *
 * \param ul_id Id (number) of the peripheral clock.
 */
static inline void sysclk_enable_peripheral_clock(uint32_t ul_id)
{
	pmc_enable_periph_clk(ul_id);
   80426:	200b      	movs	r0, #11
   80428:	4c15      	ldr	r4, [pc, #84]	; (80480 <board_init+0x64>)
   8042a:	47a0      	blx	r4
   8042c:	200c      	movs	r0, #12
   8042e:	47a0      	blx	r4
   80430:	200d      	movs	r0, #13
   80432:	47a0      	blx	r4
   80434:	200e      	movs	r0, #14
   80436:	47a0      	blx	r4
	 * In new designs IOPORT is used instead.
	 * Here IOPORT must be initialized for others to use before setting up IO.
	 */
	ioport_init();
	/* Configure LED pins */
	gpio_configure_pin(LED0_GPIO, LED0_FLAGS);
   80438:	f04f 5160 	mov.w	r1, #939524096	; 0x38000000
   8043c:	203b      	movs	r0, #59	; 0x3b
   8043e:	4c11      	ldr	r4, [pc, #68]	; (80484 <board_init+0x68>)
   80440:	47a0      	blx	r4
	gpio_configure_pin(LED1_GPIO, LED1_FLAGS);
   80442:	f04f 5160 	mov.w	r1, #939524096	; 0x38000000
   80446:	2055      	movs	r0, #85	; 0x55
   80448:	47a0      	blx	r4
	gpio_configure_pin(LED2_GPIO, LED2_FLAGS);
   8044a:	f04f 5160 	mov.w	r1, #939524096	; 0x38000000
   8044e:	2056      	movs	r0, #86	; 0x56
   80450:	47a0      	blx	r4

	/* Configure Push Button pins */
	gpio_configure_pin(GPIO_PUSH_BUTTON_1, GPIO_PUSH_BUTTON_1_FLAGS);
   80452:	490d      	ldr	r1, [pc, #52]	; (80488 <board_init+0x6c>)
   80454:	2068      	movs	r0, #104	; 0x68
   80456:	47a0      	blx	r4
	gpio_configure_pin(GPIO_PUSH_BUTTON_2, GPIO_PUSH_BUTTON_2_FLAGS);
   80458:	490c      	ldr	r1, [pc, #48]	; (8048c <board_init+0x70>)
   8045a:	205c      	movs	r0, #92	; 0x5c
   8045c:	47a0      	blx	r4

#ifdef CONF_BOARD_UART_CONSOLE
	/* Configure UART pins */
	gpio_configure_group(PINS_UART_PIO, PINS_UART, PINS_UART_FLAGS);
   8045e:	4a0c      	ldr	r2, [pc, #48]	; (80490 <board_init+0x74>)
   80460:	f44f 7140 	mov.w	r1, #768	; 0x300
   80464:	480b      	ldr	r0, [pc, #44]	; (80494 <board_init+0x78>)
   80466:	4b0c      	ldr	r3, [pc, #48]	; (80498 <board_init+0x7c>)
   80468:	4798      	blx	r3
	gpio_configure_pin(PIN_USART0_TXD_IDX, PIN_USART0_TXD_FLAGS);
#endif

#ifdef CONF_BOARD_USB_PORT
	/* Configure USB_ID (UOTGID) pin */
	gpio_configure_pin(USB_ID_GPIO, USB_ID_FLAGS);
   8046a:	f04f 6100 	mov.w	r1, #134217728	; 0x8000000
   8046e:	202b      	movs	r0, #43	; 0x2b
   80470:	47a0      	blx	r4
	/* Configure USB_VBOF (UOTGVBOF) pin */
	gpio_configure_pin(USB_VBOF_GPIO, USB_VBOF_FLAGS);
   80472:	f04f 6100 	mov.w	r1, #134217728	; 0x8000000
   80476:	202a      	movs	r0, #42	; 0x2a
   80478:	47a0      	blx	r4
   8047a:	bd10      	pop	{r4, pc}
   8047c:	400e1a50 	.word	0x400e1a50
   80480:	00080841 	.word	0x00080841
   80484:	0008054d 	.word	0x0008054d
   80488:	28000079 	.word	0x28000079
   8048c:	28000001 	.word	0x28000001
   80490:	08000001 	.word	0x08000001
   80494:	400e0e00 	.word	0x400e0e00
   80498:	0008061d 	.word	0x0008061d

0008049c <pdc_disable_transfer>:
{
	/* Validate inputs. */
	Assert(p_pdc);
	
	p_pdc->PERIPH_PTCR =
			ul_controls & (PERIPH_PTCR_RXTDIS | PERIPH_PTCR_TXTDIS);
   8049c:	f421 71fe 	bic.w	r1, r1, #508	; 0x1fc
   804a0:	f021 0101 	bic.w	r1, r1, #1
   804a4:	0589      	lsls	r1, r1, #22
   804a6:	0d89      	lsrs	r1, r1, #22
	p_pdc->PERIPH_PTCR =
   804a8:	6201      	str	r1, [r0, #32]
   804aa:	4770      	bx	lr

000804ac <pio_set_peripheral>:
		const uint32_t ul_mask)
{
	uint32_t ul_sr;

	/* Disable interrupts on the pin(s) */
	p_pio->PIO_IDR = ul_mask;
   804ac:	6442      	str	r2, [r0, #68]	; 0x44
	case PIO_OUTPUT_1:
	case PIO_NOT_A_PIN:
		return;
	}
#elif (SAM3XA|| SAM3U)
	switch (ul_type) {
   804ae:	f1b1 5f80 	cmp.w	r1, #268435456	; 0x10000000
   804b2:	d016      	beq.n	804e2 <pio_set_peripheral+0x36>
   804b4:	d80b      	bhi.n	804ce <pio_set_peripheral+0x22>
   804b6:	b149      	cbz	r1, 804cc <pio_set_peripheral+0x20>
   804b8:	f1b1 6f00 	cmp.w	r1, #134217728	; 0x8000000
   804bc:	d105      	bne.n	804ca <pio_set_peripheral+0x1e>
	case PIO_PERIPH_A:
		ul_sr = p_pio->PIO_ABSR;
   804be:	6f03      	ldr	r3, [r0, #112]	; 0x70
		p_pio->PIO_ABSR &= (~ul_mask & ul_sr);
   804c0:	6f01      	ldr	r1, [r0, #112]	; 0x70
   804c2:	400b      	ands	r3, r1
   804c4:	ea23 0302 	bic.w	r3, r3, r2
   804c8:	6703      	str	r3, [r0, #112]	; 0x70
#else
#error "Unsupported device"
#endif

	/* Remove the pins from under the control of PIO */
	p_pio->PIO_PDR = ul_mask;
   804ca:	6042      	str	r2, [r0, #4]
   804cc:	4770      	bx	lr
	switch (ul_type) {
   804ce:	f1b1 5f40 	cmp.w	r1, #805306368	; 0x30000000
   804d2:	d0fb      	beq.n	804cc <pio_set_peripheral+0x20>
   804d4:	f1b1 5f60 	cmp.w	r1, #939524096	; 0x38000000
   804d8:	d0f8      	beq.n	804cc <pio_set_peripheral+0x20>
   804da:	f1b1 5f20 	cmp.w	r1, #671088640	; 0x28000000
   804de:	d1f4      	bne.n	804ca <pio_set_peripheral+0x1e>
   804e0:	4770      	bx	lr
		ul_sr = p_pio->PIO_ABSR;
   804e2:	6f03      	ldr	r3, [r0, #112]	; 0x70
		p_pio->PIO_ABSR = (ul_mask | ul_sr);
   804e4:	4313      	orrs	r3, r2
   804e6:	6703      	str	r3, [r0, #112]	; 0x70
		break;
   804e8:	e7ef      	b.n	804ca <pio_set_peripheral+0x1e>

000804ea <pio_set_input>:
 * \param p_pio Pointer to a PIO instance.
 * \param ul_mask Interrupt sources bit map.
 */
void pio_disable_interrupt(Pio *p_pio, const uint32_t ul_mask)
{
	p_pio->PIO_IDR = ul_mask;
   804ea:	6441      	str	r1, [r0, #68]	; 0x44
	if (ul_pull_up_enable) {
   804ec:	f012 0f01 	tst.w	r2, #1
		p_pio->PIO_PUER = ul_mask;
   804f0:	bf14      	ite	ne
   804f2:	6641      	strne	r1, [r0, #100]	; 0x64
		p_pio->PIO_PUDR = ul_mask;
   804f4:	6601      	streq	r1, [r0, #96]	; 0x60
	if (ul_attribute & (PIO_DEGLITCH | PIO_DEBOUNCE)) {
   804f6:	f012 0f0a 	tst.w	r2, #10
		p_pio->PIO_IFER = ul_mask;
   804fa:	bf14      	ite	ne
   804fc:	6201      	strne	r1, [r0, #32]
		p_pio->PIO_IFDR = ul_mask;
   804fe:	6241      	streq	r1, [r0, #36]	; 0x24
	if (ul_attribute & PIO_DEGLITCH) {
   80500:	f012 0f02 	tst.w	r2, #2
   80504:	d107      	bne.n	80516 <pio_set_input+0x2c>
		if (ul_attribute & PIO_DEBOUNCE) {
   80506:	f012 0f08 	tst.w	r2, #8
			p_pio->PIO_DIFSR = ul_mask;
   8050a:	bf18      	it	ne
   8050c:	f8c0 1084 	strne.w	r1, [r0, #132]	; 0x84
	p_pio->PIO_ODR = ul_mask;
   80510:	6141      	str	r1, [r0, #20]
	p_pio->PIO_PER = ul_mask;
   80512:	6001      	str	r1, [r0, #0]
   80514:	4770      	bx	lr
		p_pio->PIO_SCIFSR = ul_mask;
   80516:	f8c0 1080 	str.w	r1, [r0, #128]	; 0x80
   8051a:	e7f9      	b.n	80510 <pio_set_input+0x26>

0008051c <pio_set_output>:
{
   8051c:	b410      	push	{r4}
   8051e:	9c01      	ldr	r4, [sp, #4]
	p_pio->PIO_IDR = ul_mask;
   80520:	6441      	str	r1, [r0, #68]	; 0x44
	if (ul_pull_up_enable) {
   80522:	b944      	cbnz	r4, 80536 <pio_set_output+0x1a>
		p_pio->PIO_PUDR = ul_mask;
   80524:	6601      	str	r1, [r0, #96]	; 0x60
	if (ul_multidrive_enable) {
   80526:	b143      	cbz	r3, 8053a <pio_set_output+0x1e>
		p_pio->PIO_MDER = ul_mask;
   80528:	6501      	str	r1, [r0, #80]	; 0x50
	if (ul_default_level) {
   8052a:	b942      	cbnz	r2, 8053e <pio_set_output+0x22>
		p_pio->PIO_CODR = ul_mask;
   8052c:	6341      	str	r1, [r0, #52]	; 0x34
	p_pio->PIO_OER = ul_mask;
   8052e:	6101      	str	r1, [r0, #16]
	p_pio->PIO_PER = ul_mask;
   80530:	6001      	str	r1, [r0, #0]
}
   80532:	bc10      	pop	{r4}
   80534:	4770      	bx	lr
		p_pio->PIO_PUER = ul_mask;
   80536:	6641      	str	r1, [r0, #100]	; 0x64
   80538:	e7f5      	b.n	80526 <pio_set_output+0xa>
		p_pio->PIO_MDDR = ul_mask;
   8053a:	6541      	str	r1, [r0, #84]	; 0x54
   8053c:	e7f5      	b.n	8052a <pio_set_output+0xe>
		p_pio->PIO_SODR = ul_mask;
   8053e:	6301      	str	r1, [r0, #48]	; 0x30
   80540:	e7f5      	b.n	8052e <pio_set_output+0x12>

00080542 <pio_get_interrupt_status>:
 *
 * \return The interrupt status value.
 */
uint32_t pio_get_interrupt_status(const Pio *p_pio)
{
	return p_pio->PIO_ISR;
   80542:	6cc0      	ldr	r0, [r0, #76]	; 0x4c
}
   80544:	4770      	bx	lr

00080546 <pio_get_interrupt_mask>:
 *
 * \return The interrupt mask value.
 */
uint32_t pio_get_interrupt_mask(const Pio *p_pio)
{
	return p_pio->PIO_IMR;
   80546:	6c80      	ldr	r0, [r0, #72]	; 0x48
}
   80548:	4770      	bx	lr
	...

0008054c <pio_configure_pin>:
 * \param ul_flags Pins attributes.
 *
 * \return Whether the pin(s) have been configured properly.
 */
uint32_t pio_configure_pin(uint32_t ul_pin, const uint32_t ul_flags)
{
   8054c:	b570      	push	{r4, r5, r6, lr}
   8054e:	b082      	sub	sp, #8
   80550:	460d      	mov	r5, r1
		p_pio = PIOC;
	} else {
		p_pio = (Pio *)((uint32_t)PIOA + (PIO_DELTA * (ul_pin >> 5)));
	}
#else
	p_pio = (Pio *)((uint32_t)PIOA + (PIO_DELTA * (ul_pin >> 5)));
   80552:	0943      	lsrs	r3, r0, #5
   80554:	f503 1300 	add.w	r3, r3, #2097152	; 0x200000
   80558:	f203 7307 	addw	r3, r3, #1799	; 0x707
   8055c:	025c      	lsls	r4, r3, #9
	switch (ul_flags & PIO_TYPE_Msk) {
   8055e:	f001 43f0 	and.w	r3, r1, #2013265920	; 0x78000000
   80562:	f1b3 5f20 	cmp.w	r3, #671088640	; 0x28000000
   80566:	d031      	beq.n	805cc <pio_configure_pin+0x80>
   80568:	d816      	bhi.n	80598 <pio_configure_pin+0x4c>
   8056a:	f1b3 6f00 	cmp.w	r3, #134217728	; 0x8000000
   8056e:	d01b      	beq.n	805a8 <pio_configure_pin+0x5c>
   80570:	f1b3 5f80 	cmp.w	r3, #268435456	; 0x10000000
   80574:	d116      	bne.n	805a4 <pio_configure_pin+0x58>
		pio_set_peripheral(p_pio, PIO_PERIPH_B, (1 << (ul_pin & 0x1F)));
   80576:	f000 001f 	and.w	r0, r0, #31
   8057a:	2601      	movs	r6, #1
   8057c:	4086      	lsls	r6, r0
   8057e:	4632      	mov	r2, r6
   80580:	f04f 5180 	mov.w	r1, #268435456	; 0x10000000
   80584:	4620      	mov	r0, r4
   80586:	4b22      	ldr	r3, [pc, #136]	; (80610 <pio_configure_pin+0xc4>)
   80588:	4798      	blx	r3
	if (ul_pull_up_enable) {
   8058a:	f015 0f01 	tst.w	r5, #1
		p_pio->PIO_PUER = ul_mask;
   8058e:	bf14      	ite	ne
   80590:	6666      	strne	r6, [r4, #100]	; 0x64
		p_pio->PIO_PUDR = ul_mask;
   80592:	6626      	streq	r6, [r4, #96]	; 0x60
	return 1;
   80594:	2001      	movs	r0, #1
   80596:	e017      	b.n	805c8 <pio_configure_pin+0x7c>
	switch (ul_flags & PIO_TYPE_Msk) {
   80598:	f1b3 5f40 	cmp.w	r3, #805306368	; 0x30000000
   8059c:	d021      	beq.n	805e2 <pio_configure_pin+0x96>
   8059e:	f1b3 5f60 	cmp.w	r3, #939524096	; 0x38000000
   805a2:	d01e      	beq.n	805e2 <pio_configure_pin+0x96>
		return 0;
   805a4:	2000      	movs	r0, #0
   805a6:	e00f      	b.n	805c8 <pio_configure_pin+0x7c>
		pio_set_peripheral(p_pio, PIO_PERIPH_A, (1 << (ul_pin & 0x1F)));
   805a8:	f000 001f 	and.w	r0, r0, #31
   805ac:	2601      	movs	r6, #1
   805ae:	4086      	lsls	r6, r0
   805b0:	4632      	mov	r2, r6
   805b2:	f04f 6100 	mov.w	r1, #134217728	; 0x8000000
   805b6:	4620      	mov	r0, r4
   805b8:	4b15      	ldr	r3, [pc, #84]	; (80610 <pio_configure_pin+0xc4>)
   805ba:	4798      	blx	r3
	if (ul_pull_up_enable) {
   805bc:	f015 0f01 	tst.w	r5, #1
		p_pio->PIO_PUER = ul_mask;
   805c0:	bf14      	ite	ne
   805c2:	6666      	strne	r6, [r4, #100]	; 0x64
		p_pio->PIO_PUDR = ul_mask;
   805c4:	6626      	streq	r6, [r4, #96]	; 0x60
	return 1;
   805c6:	2001      	movs	r0, #1
}
   805c8:	b002      	add	sp, #8
   805ca:	bd70      	pop	{r4, r5, r6, pc}
		pio_set_input(p_pio, (1 << (ul_pin & 0x1F)), ul_flags);
   805cc:	f000 011f 	and.w	r1, r0, #31
   805d0:	2601      	movs	r6, #1
   805d2:	462a      	mov	r2, r5
   805d4:	fa06 f101 	lsl.w	r1, r6, r1
   805d8:	4620      	mov	r0, r4
   805da:	4b0e      	ldr	r3, [pc, #56]	; (80614 <pio_configure_pin+0xc8>)
   805dc:	4798      	blx	r3
	return 1;
   805de:	4630      	mov	r0, r6
		break;
   805e0:	e7f2      	b.n	805c8 <pio_configure_pin+0x7c>
				((ul_flags & PIO_TYPE_PIO_OUTPUT_1)
   805e2:	f005 5260 	and.w	r2, r5, #939524096	; 0x38000000
		pio_set_output(p_pio, (1 << (ul_pin & 0x1F)),
   805e6:	f000 011f 	and.w	r1, r0, #31
   805ea:	2601      	movs	r6, #1
   805ec:	ea05 0306 	and.w	r3, r5, r6
   805f0:	9300      	str	r3, [sp, #0]
   805f2:	f3c5 0380 	ubfx	r3, r5, #2, #1
   805f6:	f1b2 5f60 	cmp.w	r2, #939524096	; 0x38000000
   805fa:	bf14      	ite	ne
   805fc:	2200      	movne	r2, #0
   805fe:	2201      	moveq	r2, #1
   80600:	fa06 f101 	lsl.w	r1, r6, r1
   80604:	4620      	mov	r0, r4
   80606:	4c04      	ldr	r4, [pc, #16]	; (80618 <pio_configure_pin+0xcc>)
   80608:	47a0      	blx	r4
	return 1;
   8060a:	4630      	mov	r0, r6
		break;
   8060c:	e7dc      	b.n	805c8 <pio_configure_pin+0x7c>
   8060e:	bf00      	nop
   80610:	000804ad 	.word	0x000804ad
   80614:	000804eb 	.word	0x000804eb
   80618:	0008051d 	.word	0x0008051d

0008061c <pio_configure_pin_group>:
{
   8061c:	b570      	push	{r4, r5, r6, lr}
   8061e:	b082      	sub	sp, #8
   80620:	4605      	mov	r5, r0
   80622:	460e      	mov	r6, r1
   80624:	4614      	mov	r4, r2
	switch (ul_flags & PIO_TYPE_Msk) {
   80626:	f002 43f0 	and.w	r3, r2, #2013265920	; 0x78000000
   8062a:	f1b3 5f20 	cmp.w	r3, #671088640	; 0x28000000
   8062e:	d027      	beq.n	80680 <pio_configure_pin_group+0x64>
   80630:	d811      	bhi.n	80656 <pio_configure_pin_group+0x3a>
   80632:	f1b3 6f00 	cmp.w	r3, #134217728	; 0x8000000
   80636:	d016      	beq.n	80666 <pio_configure_pin_group+0x4a>
   80638:	f1b3 5f80 	cmp.w	r3, #268435456	; 0x10000000
   8063c:	d111      	bne.n	80662 <pio_configure_pin_group+0x46>
		pio_set_peripheral(p_pio, PIO_PERIPH_B, ul_mask);
   8063e:	460a      	mov	r2, r1
   80640:	f04f 5180 	mov.w	r1, #268435456	; 0x10000000
   80644:	4b19      	ldr	r3, [pc, #100]	; (806ac <pio_configure_pin_group+0x90>)
   80646:	4798      	blx	r3
	if (ul_pull_up_enable) {
   80648:	f014 0f01 	tst.w	r4, #1
		p_pio->PIO_PUER = ul_mask;
   8064c:	bf14      	ite	ne
   8064e:	666e      	strne	r6, [r5, #100]	; 0x64
		p_pio->PIO_PUDR = ul_mask;
   80650:	662e      	streq	r6, [r5, #96]	; 0x60
	return 1;
   80652:	2001      	movs	r0, #1
   80654:	e012      	b.n	8067c <pio_configure_pin_group+0x60>
	switch (ul_flags & PIO_TYPE_Msk) {
   80656:	f1b3 5f40 	cmp.w	r3, #805306368	; 0x30000000
   8065a:	d015      	beq.n	80688 <pio_configure_pin_group+0x6c>
   8065c:	f1b3 5f60 	cmp.w	r3, #939524096	; 0x38000000
   80660:	d012      	beq.n	80688 <pio_configure_pin_group+0x6c>
		return 0;
   80662:	2000      	movs	r0, #0
   80664:	e00a      	b.n	8067c <pio_configure_pin_group+0x60>
		pio_set_peripheral(p_pio, PIO_PERIPH_A, ul_mask);
   80666:	460a      	mov	r2, r1
   80668:	f04f 6100 	mov.w	r1, #134217728	; 0x8000000
   8066c:	4b0f      	ldr	r3, [pc, #60]	; (806ac <pio_configure_pin_group+0x90>)
   8066e:	4798      	blx	r3
	if (ul_pull_up_enable) {
   80670:	f014 0f01 	tst.w	r4, #1
		p_pio->PIO_PUER = ul_mask;
   80674:	bf14      	ite	ne
   80676:	666e      	strne	r6, [r5, #100]	; 0x64
		p_pio->PIO_PUDR = ul_mask;
   80678:	662e      	streq	r6, [r5, #96]	; 0x60
	return 1;
   8067a:	2001      	movs	r0, #1
}
   8067c:	b002      	add	sp, #8
   8067e:	bd70      	pop	{r4, r5, r6, pc}
		pio_set_input(p_pio, ul_mask, ul_flags);
   80680:	4b0b      	ldr	r3, [pc, #44]	; (806b0 <pio_configure_pin_group+0x94>)
   80682:	4798      	blx	r3
	return 1;
   80684:	2001      	movs	r0, #1
		break;
   80686:	e7f9      	b.n	8067c <pio_configure_pin_group+0x60>
				((ul_flags & PIO_TYPE_PIO_OUTPUT_1)
   80688:	f004 5260 	and.w	r2, r4, #939524096	; 0x38000000
		pio_set_output(p_pio, ul_mask,
   8068c:	f004 0301 	and.w	r3, r4, #1
   80690:	9300      	str	r3, [sp, #0]
   80692:	f3c4 0380 	ubfx	r3, r4, #2, #1
   80696:	f1b2 5f60 	cmp.w	r2, #939524096	; 0x38000000
   8069a:	bf14      	ite	ne
   8069c:	2200      	movne	r2, #0
   8069e:	2201      	moveq	r2, #1
   806a0:	4631      	mov	r1, r6
   806a2:	4628      	mov	r0, r5
   806a4:	4c03      	ldr	r4, [pc, #12]	; (806b4 <pio_configure_pin_group+0x98>)
   806a6:	47a0      	blx	r4
	return 1;
   806a8:	2001      	movs	r0, #1
		break;
   806aa:	e7e7      	b.n	8067c <pio_configure_pin_group+0x60>
   806ac:	000804ad 	.word	0x000804ad
   806b0:	000804eb 	.word	0x000804eb
   806b4:	0008051d 	.word	0x0008051d

000806b8 <pio_handler_process>:
 *
 * \param p_pio PIO controller base address.
 * \param ul_id PIO controller ID.
 */
void pio_handler_process(Pio *p_pio, uint32_t ul_id)
{
   806b8:	e92d 41f0 	stmdb	sp!, {r4, r5, r6, r7, r8, lr}
   806bc:	4604      	mov	r4, r0
   806be:	4688      	mov	r8, r1
	uint32_t status;
	uint32_t i;

	/* Read PIO controller status */
	status = pio_get_interrupt_status(p_pio);
   806c0:	4b0e      	ldr	r3, [pc, #56]	; (806fc <pio_handler_process+0x44>)
   806c2:	4798      	blx	r3
   806c4:	4605      	mov	r5, r0
	status &= pio_get_interrupt_mask(p_pio);
   806c6:	4620      	mov	r0, r4
   806c8:	4b0d      	ldr	r3, [pc, #52]	; (80700 <pio_handler_process+0x48>)
   806ca:	4798      	blx	r3

	/* Check pending events */
	if (status != 0) {
   806cc:	4005      	ands	r5, r0
   806ce:	d013      	beq.n	806f8 <pio_handler_process+0x40>
   806d0:	4c0c      	ldr	r4, [pc, #48]	; (80704 <pio_handler_process+0x4c>)
   806d2:	f104 0660 	add.w	r6, r4, #96	; 0x60
   806d6:	e003      	b.n	806e0 <pio_handler_process+0x28>
							gs_interrupt_sources[i].mask);
					status &= ~(gs_interrupt_sources[i].mask);
				}
			}
			i++;
			if (i >= MAX_INTERRUPT_SOURCES) {
   806d8:	42b4      	cmp	r4, r6
   806da:	d00d      	beq.n	806f8 <pio_handler_process+0x40>
   806dc:	3410      	adds	r4, #16
		while (status != 0) {
   806de:	b15d      	cbz	r5, 806f8 <pio_handler_process+0x40>
			if (gs_interrupt_sources[i].id == ul_id) {
   806e0:	6820      	ldr	r0, [r4, #0]
   806e2:	4540      	cmp	r0, r8
   806e4:	d1f8      	bne.n	806d8 <pio_handler_process+0x20>
				if ((status & gs_interrupt_sources[i].mask) != 0) {
   806e6:	6861      	ldr	r1, [r4, #4]
   806e8:	4229      	tst	r1, r5
   806ea:	d0f5      	beq.n	806d8 <pio_handler_process+0x20>
					gs_interrupt_sources[i].handler(gs_interrupt_sources[i].id,
   806ec:	68e3      	ldr	r3, [r4, #12]
   806ee:	4798      	blx	r3
					status &= ~(gs_interrupt_sources[i].mask);
   806f0:	6863      	ldr	r3, [r4, #4]
   806f2:	ea25 0503 	bic.w	r5, r5, r3
   806f6:	e7ef      	b.n	806d8 <pio_handler_process+0x20>
   806f8:	e8bd 81f0 	ldmia.w	sp!, {r4, r5, r6, r7, r8, pc}
   806fc:	00080543 	.word	0x00080543
   80700:	00080547 	.word	0x00080547
   80704:	200705b0 	.word	0x200705b0

00080708 <PIOA_Handler>:
/**
 * \brief Parallel IO Controller A interrupt handler.
 * Redefined PIOA interrupt handler for NVIC interrupt table.
 */
void PIOA_Handler(void)
{
   80708:	b508      	push	{r3, lr}
	pio_handler_process(PIOA, ID_PIOA);
   8070a:	210b      	movs	r1, #11
   8070c:	4801      	ldr	r0, [pc, #4]	; (80714 <PIOA_Handler+0xc>)
   8070e:	4b02      	ldr	r3, [pc, #8]	; (80718 <PIOA_Handler+0x10>)
   80710:	4798      	blx	r3
   80712:	bd08      	pop	{r3, pc}
   80714:	400e0e00 	.word	0x400e0e00
   80718:	000806b9 	.word	0x000806b9

0008071c <PIOB_Handler>:
/**
 * \brief Parallel IO Controller B interrupt handler
 * Redefined PIOB interrupt handler for NVIC interrupt table.
 */
void PIOB_Handler(void)
{
   8071c:	b508      	push	{r3, lr}
    pio_handler_process(PIOB, ID_PIOB);
   8071e:	210c      	movs	r1, #12
   80720:	4801      	ldr	r0, [pc, #4]	; (80728 <PIOB_Handler+0xc>)
   80722:	4b02      	ldr	r3, [pc, #8]	; (8072c <PIOB_Handler+0x10>)
   80724:	4798      	blx	r3
   80726:	bd08      	pop	{r3, pc}
   80728:	400e1000 	.word	0x400e1000
   8072c:	000806b9 	.word	0x000806b9

00080730 <PIOC_Handler>:
/**
 * \brief Parallel IO Controller C interrupt handler.
 * Redefined PIOC interrupt handler for NVIC interrupt table.
 */
void PIOC_Handler(void)
{
   80730:	b508      	push	{r3, lr}
	pio_handler_process(PIOC, ID_PIOC);
   80732:	210d      	movs	r1, #13
   80734:	4801      	ldr	r0, [pc, #4]	; (8073c <PIOC_Handler+0xc>)
   80736:	4b02      	ldr	r3, [pc, #8]	; (80740 <PIOC_Handler+0x10>)
   80738:	4798      	blx	r3
   8073a:	bd08      	pop	{r3, pc}
   8073c:	400e1200 	.word	0x400e1200
   80740:	000806b9 	.word	0x000806b9

00080744 <PIOD_Handler>:
/**
 * \brief Parallel IO Controller D interrupt handler.
 * Redefined PIOD interrupt handler for NVIC interrupt table.
 */
void PIOD_Handler(void)
{
   80744:	b508      	push	{r3, lr}
	pio_handler_process(PIOD, ID_PIOD);
   80746:	210e      	movs	r1, #14
   80748:	4801      	ldr	r0, [pc, #4]	; (80750 <PIOD_Handler+0xc>)
   8074a:	4b02      	ldr	r3, [pc, #8]	; (80754 <PIOD_Handler+0x10>)
   8074c:	4798      	blx	r3
   8074e:	bd08      	pop	{r3, pc}
   80750:	400e1400 	.word	0x400e1400
   80754:	000806b9 	.word	0x000806b9

00080758 <pmc_switch_mck_to_pllack>:
 */
uint32_t pmc_switch_mck_to_pllack(uint32_t ul_pres)
{
	uint32_t ul_timeout;

	PMC->PMC_MCKR = (PMC->PMC_MCKR & (~PMC_MCKR_PRES_Msk)) | ul_pres;
   80758:	4a17      	ldr	r2, [pc, #92]	; (807b8 <pmc_switch_mck_to_pllack+0x60>)
   8075a:	6b13      	ldr	r3, [r2, #48]	; 0x30
   8075c:	f023 0370 	bic.w	r3, r3, #112	; 0x70
   80760:	4318      	orrs	r0, r3
   80762:	6310      	str	r0, [r2, #48]	; 0x30
	for (ul_timeout = PMC_TIMEOUT; !(PMC->PMC_SR & PMC_SR_MCKRDY);
   80764:	6e93      	ldr	r3, [r2, #104]	; 0x68
   80766:	f013 0f08 	tst.w	r3, #8
   8076a:	d10a      	bne.n	80782 <pmc_switch_mck_to_pllack+0x2a>
   8076c:	f44f 6300 	mov.w	r3, #2048	; 0x800
   80770:	4911      	ldr	r1, [pc, #68]	; (807b8 <pmc_switch_mck_to_pllack+0x60>)
   80772:	6e8a      	ldr	r2, [r1, #104]	; 0x68
   80774:	f012 0f08 	tst.w	r2, #8
   80778:	d103      	bne.n	80782 <pmc_switch_mck_to_pllack+0x2a>
			--ul_timeout) {
		if (ul_timeout == 0) {
   8077a:	3b01      	subs	r3, #1
   8077c:	d1f9      	bne.n	80772 <pmc_switch_mck_to_pllack+0x1a>
			return 1;
   8077e:	2001      	movs	r0, #1
   80780:	4770      	bx	lr
		}
	}

	PMC->PMC_MCKR = (PMC->PMC_MCKR & (~PMC_MCKR_CSS_Msk)) |
   80782:	4a0d      	ldr	r2, [pc, #52]	; (807b8 <pmc_switch_mck_to_pllack+0x60>)
   80784:	6b13      	ldr	r3, [r2, #48]	; 0x30
   80786:	f023 0303 	bic.w	r3, r3, #3
   8078a:	f043 0302 	orr.w	r3, r3, #2
   8078e:	6313      	str	r3, [r2, #48]	; 0x30
			PMC_MCKR_CSS_PLLA_CLK;

	for (ul_timeout = PMC_TIMEOUT; !(PMC->PMC_SR & PMC_SR_MCKRDY);
   80790:	6e93      	ldr	r3, [r2, #104]	; 0x68
   80792:	f013 0f08 	tst.w	r3, #8
   80796:	d10a      	bne.n	807ae <pmc_switch_mck_to_pllack+0x56>
   80798:	f44f 6300 	mov.w	r3, #2048	; 0x800
   8079c:	4906      	ldr	r1, [pc, #24]	; (807b8 <pmc_switch_mck_to_pllack+0x60>)
   8079e:	6e8a      	ldr	r2, [r1, #104]	; 0x68
   807a0:	f012 0f08 	tst.w	r2, #8
   807a4:	d105      	bne.n	807b2 <pmc_switch_mck_to_pllack+0x5a>
			--ul_timeout) {
		if (ul_timeout == 0) {
   807a6:	3b01      	subs	r3, #1
   807a8:	d1f9      	bne.n	8079e <pmc_switch_mck_to_pllack+0x46>
			return 1;
   807aa:	2001      	movs	r0, #1
		}
	}

	return 0;
}
   807ac:	4770      	bx	lr
	return 0;
   807ae:	2000      	movs	r0, #0
   807b0:	4770      	bx	lr
   807b2:	2000      	movs	r0, #0
   807b4:	4770      	bx	lr
   807b6:	bf00      	nop
   807b8:	400e0600 	.word	0x400e0600

000807bc <pmc_switch_mainck_to_xtal>:
 */
void pmc_switch_mainck_to_xtal(uint32_t ul_bypass,
		uint32_t ul_xtal_startup_time)
{
	/* Enable Main Xtal oscillator */
	if (ul_bypass) {
   807bc:	b9c8      	cbnz	r0, 807f2 <pmc_switch_mainck_to_xtal+0x36>
		PMC->CKGR_MOR = (PMC->CKGR_MOR & ~CKGR_MOR_MOSCXTEN) |
				CKGR_MOR_KEY_PASSWD | CKGR_MOR_MOSCXTBY |
				CKGR_MOR_MOSCSEL;
	} else {
		PMC->CKGR_MOR = (PMC->CKGR_MOR & ~CKGR_MOR_MOSCXTBY) |
   807be:	4a11      	ldr	r2, [pc, #68]	; (80804 <pmc_switch_mainck_to_xtal+0x48>)
   807c0:	6a13      	ldr	r3, [r2, #32]
				CKGR_MOR_KEY_PASSWD | CKGR_MOR_MOSCXTEN |
				CKGR_MOR_MOSCXTST(ul_xtal_startup_time);
   807c2:	0209      	lsls	r1, r1, #8
   807c4:	b289      	uxth	r1, r1
				CKGR_MOR_KEY_PASSWD | CKGR_MOR_MOSCXTEN |
   807c6:	f423 135c 	bic.w	r3, r3, #3604480	; 0x370000
   807ca:	f023 0303 	bic.w	r3, r3, #3
   807ce:	f443 135c 	orr.w	r3, r3, #3604480	; 0x370000
   807d2:	f043 0301 	orr.w	r3, r3, #1
   807d6:	430b      	orrs	r3, r1
		PMC->CKGR_MOR = (PMC->CKGR_MOR & ~CKGR_MOR_MOSCXTBY) |
   807d8:	6213      	str	r3, [r2, #32]
		/* Wait the Xtal to stabilize */
		while (!(PMC->PMC_SR & PMC_SR_MOSCXTS));
   807da:	6e93      	ldr	r3, [r2, #104]	; 0x68
   807dc:	f013 0f01 	tst.w	r3, #1
   807e0:	d0fb      	beq.n	807da <pmc_switch_mainck_to_xtal+0x1e>

		PMC->CKGR_MOR |= CKGR_MOR_KEY_PASSWD | CKGR_MOR_MOSCSEL;
   807e2:	4a08      	ldr	r2, [pc, #32]	; (80804 <pmc_switch_mainck_to_xtal+0x48>)
   807e4:	6a13      	ldr	r3, [r2, #32]
   807e6:	f043 739b 	orr.w	r3, r3, #20316160	; 0x1360000
   807ea:	f443 3380 	orr.w	r3, r3, #65536	; 0x10000
   807ee:	6213      	str	r3, [r2, #32]
   807f0:	4770      	bx	lr
		PMC->CKGR_MOR = (PMC->CKGR_MOR & ~CKGR_MOR_MOSCXTEN) |
   807f2:	4904      	ldr	r1, [pc, #16]	; (80804 <pmc_switch_mainck_to_xtal+0x48>)
   807f4:	6a0b      	ldr	r3, [r1, #32]
				CKGR_MOR_KEY_PASSWD | CKGR_MOR_MOSCXTBY |
   807f6:	4a04      	ldr	r2, [pc, #16]	; (80808 <pmc_switch_mainck_to_xtal+0x4c>)
   807f8:	401a      	ands	r2, r3
   807fa:	4b04      	ldr	r3, [pc, #16]	; (8080c <pmc_switch_mainck_to_xtal+0x50>)
   807fc:	4313      	orrs	r3, r2
		PMC->CKGR_MOR = (PMC->CKGR_MOR & ~CKGR_MOR_MOSCXTEN) |
   807fe:	620b      	str	r3, [r1, #32]
   80800:	4770      	bx	lr
   80802:	bf00      	nop
   80804:	400e0600 	.word	0x400e0600
   80808:	fec8fffc 	.word	0xfec8fffc
   8080c:	01370002 	.word	0x01370002

00080810 <pmc_osc_is_ready_mainck>:
 * \retval 1 Xtal is ready.
 * \retval 0 Xtal is not ready.
 */
uint32_t pmc_osc_is_ready_mainck(void)
{
	return PMC->PMC_SR & PMC_SR_MOSCSELS;
   80810:	4b02      	ldr	r3, [pc, #8]	; (8081c <pmc_osc_is_ready_mainck+0xc>)
   80812:	6e98      	ldr	r0, [r3, #104]	; 0x68
}
   80814:	f400 3080 	and.w	r0, r0, #65536	; 0x10000
   80818:	4770      	bx	lr
   8081a:	bf00      	nop
   8081c:	400e0600 	.word	0x400e0600

00080820 <pmc_disable_pllack>:
void pmc_disable_pllack(void)
{
#if (SAM4C || SAM4CM || SAM4CP || SAMG)
	PMC->CKGR_PLLAR = CKGR_PLLAR_MULA(0);
#else
	PMC->CKGR_PLLAR = CKGR_PLLAR_ONE | CKGR_PLLAR_MULA(0);
   80820:	f04f 5200 	mov.w	r2, #536870912	; 0x20000000
   80824:	4b01      	ldr	r3, [pc, #4]	; (8082c <pmc_disable_pllack+0xc>)
   80826:	629a      	str	r2, [r3, #40]	; 0x28
   80828:	4770      	bx	lr
   8082a:	bf00      	nop
   8082c:	400e0600 	.word	0x400e0600

00080830 <pmc_is_locked_pllack>:
 * \retval 0 Not locked.
 * \retval 1 Locked.
 */
uint32_t pmc_is_locked_pllack(void)
{
	return (PMC->PMC_SR & PMC_SR_LOCKA);
   80830:	4b02      	ldr	r3, [pc, #8]	; (8083c <pmc_is_locked_pllack+0xc>)
   80832:	6e98      	ldr	r0, [r3, #104]	; 0x68
}
   80834:	f000 0002 	and.w	r0, r0, #2
   80838:	4770      	bx	lr
   8083a:	bf00      	nop
   8083c:	400e0600 	.word	0x400e0600

00080840 <pmc_enable_periph_clk>:
 * \retval 0 Success.
 * \retval 1 Invalid parameter.
 */
uint32_t pmc_enable_periph_clk(uint32_t ul_id)
{
	if (ul_id > MAX_PERIPH_ID) {
   80840:	282c      	cmp	r0, #44	; 0x2c
   80842:	d81e      	bhi.n	80882 <pmc_enable_periph_clk+0x42>
		return 1;
	}

	if (ul_id < 32) {
   80844:	281f      	cmp	r0, #31
   80846:	d80c      	bhi.n	80862 <pmc_enable_periph_clk+0x22>
		if ((PMC->PMC_PCSR0 & (1u << ul_id)) != (1u << ul_id)) {
   80848:	4b11      	ldr	r3, [pc, #68]	; (80890 <pmc_enable_periph_clk+0x50>)
   8084a:	699a      	ldr	r2, [r3, #24]
   8084c:	2301      	movs	r3, #1
   8084e:	4083      	lsls	r3, r0
   80850:	4393      	bics	r3, r2
   80852:	d018      	beq.n	80886 <pmc_enable_periph_clk+0x46>
			PMC->PMC_PCER0 = 1 << ul_id;
   80854:	2301      	movs	r3, #1
   80856:	fa03 f000 	lsl.w	r0, r3, r0
   8085a:	4b0d      	ldr	r3, [pc, #52]	; (80890 <pmc_enable_periph_clk+0x50>)
   8085c:	6118      	str	r0, [r3, #16]
			PMC->PMC_PCER1 = 1 << ul_id;
		}
#endif
	}

	return 0;
   8085e:	2000      	movs	r0, #0
   80860:	4770      	bx	lr
		ul_id -= 32;
   80862:	3820      	subs	r0, #32
		if ((PMC->PMC_PCSR1 & (1u << ul_id)) != (1u << ul_id)) {
   80864:	4b0a      	ldr	r3, [pc, #40]	; (80890 <pmc_enable_periph_clk+0x50>)
   80866:	f8d3 2108 	ldr.w	r2, [r3, #264]	; 0x108
   8086a:	2301      	movs	r3, #1
   8086c:	4083      	lsls	r3, r0
   8086e:	4393      	bics	r3, r2
   80870:	d00b      	beq.n	8088a <pmc_enable_periph_clk+0x4a>
			PMC->PMC_PCER1 = 1 << ul_id;
   80872:	2301      	movs	r3, #1
   80874:	fa03 f000 	lsl.w	r0, r3, r0
   80878:	4b05      	ldr	r3, [pc, #20]	; (80890 <pmc_enable_periph_clk+0x50>)
   8087a:	f8c3 0100 	str.w	r0, [r3, #256]	; 0x100
	return 0;
   8087e:	2000      	movs	r0, #0
   80880:	4770      	bx	lr
		return 1;
   80882:	2001      	movs	r0, #1
   80884:	4770      	bx	lr
	return 0;
   80886:	2000      	movs	r0, #0
   80888:	4770      	bx	lr
   8088a:	2000      	movs	r0, #0
}
   8088c:	4770      	bx	lr
   8088e:	bf00      	nop
   80890:	400e0600 	.word	0x400e0600

00080894 <twi_disable_interrupt>:
 * \param ul_sources Interrupts to be disabled.
 */
void twi_disable_interrupt(Twi *p_twi, uint32_t ul_sources)
{
	/* Disable the specified interrupts */
	p_twi->TWI_IDR = ul_sources;
   80894:	6281      	str	r1, [r0, #40]	; 0x28
	/* Dummy read */
	p_twi->TWI_SR;
   80896:	6a03      	ldr	r3, [r0, #32]
   80898:	4770      	bx	lr

0008089a <twi_get_interrupt_status>:
 *
 * \retval TWI interrupt status.
 */
uint32_t twi_get_interrupt_status(Twi *p_twi)
{
	return p_twi->TWI_SR;
   8089a:	6a00      	ldr	r0, [r0, #32]
}
   8089c:	4770      	bx	lr

0008089e <twi_get_interrupt_mask>:
 *
 * \return The interrupt mask value.
 */
uint32_t twi_get_interrupt_mask(Twi *p_twi)
{
	return p_twi->TWI_IMR;
   8089e:	6ac0      	ldr	r0, [r0, #44]	; 0x2c
}
   808a0:	4770      	bx	lr

000808a2 <Dummy_Handler>:

/**
 * \brief Default interrupt handler for unused IRQs.
 */
void Dummy_Handler(void)
{
   808a2:	e7fe      	b.n	808a2 <Dummy_Handler>

000808a4 <Reset_Handler>:
/**
 * \brief This is the code that gets called on processor reset.
 * To initialize the device, and call the main() routine.
 */
void Reset_Handler(void)
{
   808a4:	b508      	push	{r3, lr}

	/* Initialize the relocate segment */
	pSrc = &_etext;
	pDest = &_srelocate;

	if (pSrc != pDest) {
   808a6:	4b1c      	ldr	r3, [pc, #112]	; (80918 <Reset_Handler+0x74>)
   808a8:	4a1c      	ldr	r2, [pc, #112]	; (8091c <Reset_Handler+0x78>)
   808aa:	429a      	cmp	r2, r3
   808ac:	d010      	beq.n	808d0 <Reset_Handler+0x2c>
		for (; pDest < &_erelocate;) {
   808ae:	4b1c      	ldr	r3, [pc, #112]	; (80920 <Reset_Handler+0x7c>)
   808b0:	4a19      	ldr	r2, [pc, #100]	; (80918 <Reset_Handler+0x74>)
   808b2:	429a      	cmp	r2, r3
   808b4:	d20c      	bcs.n	808d0 <Reset_Handler+0x2c>
   808b6:	3b01      	subs	r3, #1
   808b8:	1a9b      	subs	r3, r3, r2
   808ba:	f023 0303 	bic.w	r3, r3, #3
   808be:	3304      	adds	r3, #4
   808c0:	4413      	add	r3, r2
   808c2:	4916      	ldr	r1, [pc, #88]	; (8091c <Reset_Handler+0x78>)
			*pDest++ = *pSrc++;
   808c4:	f851 0b04 	ldr.w	r0, [r1], #4
   808c8:	f842 0b04 	str.w	r0, [r2], #4
		for (; pDest < &_erelocate;) {
   808cc:	429a      	cmp	r2, r3
   808ce:	d1f9      	bne.n	808c4 <Reset_Handler+0x20>
		}
	}

	/* Clear the zero segment */
	for (pDest = &_szero; pDest < &_ezero;) {
   808d0:	4b14      	ldr	r3, [pc, #80]	; (80924 <Reset_Handler+0x80>)
   808d2:	4a15      	ldr	r2, [pc, #84]	; (80928 <Reset_Handler+0x84>)
   808d4:	429a      	cmp	r2, r3
   808d6:	d20a      	bcs.n	808ee <Reset_Handler+0x4a>
   808d8:	3b01      	subs	r3, #1
   808da:	1a9b      	subs	r3, r3, r2
   808dc:	f023 0303 	bic.w	r3, r3, #3
   808e0:	3304      	adds	r3, #4
   808e2:	4413      	add	r3, r2
		*pDest++ = 0;
   808e4:	2100      	movs	r1, #0
   808e6:	f842 1b04 	str.w	r1, [r2], #4
	for (pDest = &_szero; pDest < &_ezero;) {
   808ea:	4293      	cmp	r3, r2
   808ec:	d1fb      	bne.n	808e6 <Reset_Handler+0x42>
	}

	/* Set the vector table base address */
	pSrc = (uint32_t *) & _sfixed;
	SCB->VTOR = ((uint32_t) pSrc & SCB_VTOR_TBLOFF_Msk);
   808ee:	4b0f      	ldr	r3, [pc, #60]	; (8092c <Reset_Handler+0x88>)
   808f0:	f023 4260 	bic.w	r2, r3, #3758096384	; 0xe0000000
   808f4:	f022 027f 	bic.w	r2, r2, #127	; 0x7f
   808f8:	490d      	ldr	r1, [pc, #52]	; (80930 <Reset_Handler+0x8c>)
   808fa:	608a      	str	r2, [r1, #8]

	if (((uint32_t) pSrc >= IRAM0_ADDR) && ((uint32_t) pSrc < NFC_RAM_ADDR)) {
   808fc:	f103 4360 	add.w	r3, r3, #3758096384	; 0xe0000000
   80900:	f5b3 1f80 	cmp.w	r3, #1048576	; 0x100000
   80904:	d203      	bcs.n	8090e <Reset_Handler+0x6a>
		SCB->VTOR |= 1 << SCB_VTOR_TBLBASE_Pos;
   80906:	688b      	ldr	r3, [r1, #8]
   80908:	f043 5300 	orr.w	r3, r3, #536870912	; 0x20000000
   8090c:	608b      	str	r3, [r1, #8]
	}

	/* Initialize the C library */
	__libc_init_array();
   8090e:	4b09      	ldr	r3, [pc, #36]	; (80934 <Reset_Handler+0x90>)
   80910:	4798      	blx	r3

	/* Branch to main function */
	main();
   80912:	4b09      	ldr	r3, [pc, #36]	; (80938 <Reset_Handler+0x94>)
   80914:	4798      	blx	r3
   80916:	e7fe      	b.n	80916 <Reset_Handler+0x72>
   80918:	20070000 	.word	0x20070000
   8091c:	00081198 	.word	0x00081198
   80920:	20070564 	.word	0x20070564
   80924:	200706e0 	.word	0x200706e0
   80928:	20070564 	.word	0x20070564
   8092c:	00080000 	.word	0x00080000
   80930:	e000ed00 	.word	0xe000ed00
   80934:	00080ef5 	.word	0x00080ef5
   80938:	00080edd 	.word	0x00080edd

0008093c <SystemCoreClockUpdate>:
}

void SystemCoreClockUpdate(void)
{
	/* Determine clock frequency according to clock register values */
	switch (PMC->PMC_MCKR & PMC_MCKR_CSS_Msk) {
   8093c:	4b3d      	ldr	r3, [pc, #244]	; (80a34 <SystemCoreClockUpdate+0xf8>)
   8093e:	6b1b      	ldr	r3, [r3, #48]	; 0x30
   80940:	f003 0303 	and.w	r3, r3, #3
   80944:	2b03      	cmp	r3, #3
   80946:	d80e      	bhi.n	80966 <SystemCoreClockUpdate+0x2a>
   80948:	e8df f003 	tbb	[pc, r3]
   8094c:	38381c02 	.word	0x38381c02
	case PMC_MCKR_CSS_SLOW_CLK:	/* Slow clock */
		if (SUPC->SUPC_SR & SUPC_SR_OSCSEL) {
   80950:	4b39      	ldr	r3, [pc, #228]	; (80a38 <SystemCoreClockUpdate+0xfc>)
   80952:	695b      	ldr	r3, [r3, #20]
   80954:	f013 0f80 	tst.w	r3, #128	; 0x80
			SystemCoreClock = CHIP_FREQ_XTAL_32K;
   80958:	bf14      	ite	ne
   8095a:	f44f 4200 	movne.w	r2, #32768	; 0x8000
		} else {
			SystemCoreClock = CHIP_FREQ_SLCK_RC;
   8095e:	f44f 42fa 	moveq.w	r2, #32000	; 0x7d00
   80962:	4b36      	ldr	r3, [pc, #216]	; (80a3c <SystemCoreClockUpdate+0x100>)
   80964:	601a      	str	r2, [r3, #0]
			SystemCoreClock = SYS_UTMIPLL / 2U;
		}
		break;
	}

	if ((PMC->PMC_MCKR & PMC_MCKR_PRES_Msk) == PMC_MCKR_PRES_CLK_3) {
   80966:	4b33      	ldr	r3, [pc, #204]	; (80a34 <SystemCoreClockUpdate+0xf8>)
   80968:	6b1b      	ldr	r3, [r3, #48]	; 0x30
   8096a:	f003 0370 	and.w	r3, r3, #112	; 0x70
   8096e:	2b70      	cmp	r3, #112	; 0x70
   80970:	d057      	beq.n	80a22 <SystemCoreClockUpdate+0xe6>
		SystemCoreClock /= 3U;
	} else {
		SystemCoreClock >>= ((PMC->PMC_MCKR & PMC_MCKR_PRES_Msk) >> 
   80972:	4b30      	ldr	r3, [pc, #192]	; (80a34 <SystemCoreClockUpdate+0xf8>)
   80974:	6b1a      	ldr	r2, [r3, #48]	; 0x30
   80976:	4931      	ldr	r1, [pc, #196]	; (80a3c <SystemCoreClockUpdate+0x100>)
   80978:	f3c2 1202 	ubfx	r2, r2, #4, #3
   8097c:	680b      	ldr	r3, [r1, #0]
   8097e:	40d3      	lsrs	r3, r2
   80980:	600b      	str	r3, [r1, #0]
   80982:	4770      	bx	lr
		if (PMC->CKGR_MOR & CKGR_MOR_MOSCSEL) {
   80984:	4b2b      	ldr	r3, [pc, #172]	; (80a34 <SystemCoreClockUpdate+0xf8>)
   80986:	6a1b      	ldr	r3, [r3, #32]
   80988:	f013 7f80 	tst.w	r3, #16777216	; 0x1000000
   8098c:	d003      	beq.n	80996 <SystemCoreClockUpdate+0x5a>
			SystemCoreClock = CHIP_FREQ_XTAL_12M;
   8098e:	4a2c      	ldr	r2, [pc, #176]	; (80a40 <SystemCoreClockUpdate+0x104>)
   80990:	4b2a      	ldr	r3, [pc, #168]	; (80a3c <SystemCoreClockUpdate+0x100>)
   80992:	601a      	str	r2, [r3, #0]
   80994:	e7e7      	b.n	80966 <SystemCoreClockUpdate+0x2a>
			SystemCoreClock = CHIP_FREQ_MAINCK_RC_4MHZ;
   80996:	4a2b      	ldr	r2, [pc, #172]	; (80a44 <SystemCoreClockUpdate+0x108>)
   80998:	4b28      	ldr	r3, [pc, #160]	; (80a3c <SystemCoreClockUpdate+0x100>)
   8099a:	601a      	str	r2, [r3, #0]
			switch (PMC->CKGR_MOR & CKGR_MOR_MOSCRCF_Msk) {
   8099c:	4b25      	ldr	r3, [pc, #148]	; (80a34 <SystemCoreClockUpdate+0xf8>)
   8099e:	6a1b      	ldr	r3, [r3, #32]
   809a0:	f003 0370 	and.w	r3, r3, #112	; 0x70
   809a4:	2b10      	cmp	r3, #16
   809a6:	d005      	beq.n	809b4 <SystemCoreClockUpdate+0x78>
   809a8:	2b20      	cmp	r3, #32
   809aa:	d1dc      	bne.n	80966 <SystemCoreClockUpdate+0x2a>
				SystemCoreClock *= 3U;
   809ac:	4a24      	ldr	r2, [pc, #144]	; (80a40 <SystemCoreClockUpdate+0x104>)
   809ae:	4b23      	ldr	r3, [pc, #140]	; (80a3c <SystemCoreClockUpdate+0x100>)
   809b0:	601a      	str	r2, [r3, #0]
				break;
   809b2:	e7d8      	b.n	80966 <SystemCoreClockUpdate+0x2a>
				SystemCoreClock *= 2U;
   809b4:	4a24      	ldr	r2, [pc, #144]	; (80a48 <SystemCoreClockUpdate+0x10c>)
   809b6:	4b21      	ldr	r3, [pc, #132]	; (80a3c <SystemCoreClockUpdate+0x100>)
   809b8:	601a      	str	r2, [r3, #0]
				break;
   809ba:	e7d4      	b.n	80966 <SystemCoreClockUpdate+0x2a>
		if (PMC->CKGR_MOR & CKGR_MOR_MOSCSEL) {
   809bc:	4b1d      	ldr	r3, [pc, #116]	; (80a34 <SystemCoreClockUpdate+0xf8>)
   809be:	6a1b      	ldr	r3, [r3, #32]
   809c0:	f013 7f80 	tst.w	r3, #16777216	; 0x1000000
   809c4:	d00c      	beq.n	809e0 <SystemCoreClockUpdate+0xa4>
			SystemCoreClock = CHIP_FREQ_XTAL_12M;
   809c6:	4a1e      	ldr	r2, [pc, #120]	; (80a40 <SystemCoreClockUpdate+0x104>)
   809c8:	4b1c      	ldr	r3, [pc, #112]	; (80a3c <SystemCoreClockUpdate+0x100>)
   809ca:	601a      	str	r2, [r3, #0]
		if ((PMC->PMC_MCKR & PMC_MCKR_CSS_Msk) == PMC_MCKR_CSS_PLLA_CLK) {
   809cc:	4b19      	ldr	r3, [pc, #100]	; (80a34 <SystemCoreClockUpdate+0xf8>)
   809ce:	6b1b      	ldr	r3, [r3, #48]	; 0x30
   809d0:	f003 0303 	and.w	r3, r3, #3
   809d4:	2b02      	cmp	r3, #2
   809d6:	d016      	beq.n	80a06 <SystemCoreClockUpdate+0xca>
			SystemCoreClock = SYS_UTMIPLL / 2U;
   809d8:	4a1c      	ldr	r2, [pc, #112]	; (80a4c <SystemCoreClockUpdate+0x110>)
   809da:	4b18      	ldr	r3, [pc, #96]	; (80a3c <SystemCoreClockUpdate+0x100>)
   809dc:	601a      	str	r2, [r3, #0]
   809de:	e7c2      	b.n	80966 <SystemCoreClockUpdate+0x2a>
			SystemCoreClock = CHIP_FREQ_MAINCK_RC_4MHZ;
   809e0:	4a18      	ldr	r2, [pc, #96]	; (80a44 <SystemCoreClockUpdate+0x108>)
   809e2:	4b16      	ldr	r3, [pc, #88]	; (80a3c <SystemCoreClockUpdate+0x100>)
   809e4:	601a      	str	r2, [r3, #0]
			switch (PMC->CKGR_MOR & CKGR_MOR_MOSCRCF_Msk) {
   809e6:	4b13      	ldr	r3, [pc, #76]	; (80a34 <SystemCoreClockUpdate+0xf8>)
   809e8:	6a1b      	ldr	r3, [r3, #32]
   809ea:	f003 0370 	and.w	r3, r3, #112	; 0x70
   809ee:	2b10      	cmp	r3, #16
   809f0:	d005      	beq.n	809fe <SystemCoreClockUpdate+0xc2>
   809f2:	2b20      	cmp	r3, #32
   809f4:	d1ea      	bne.n	809cc <SystemCoreClockUpdate+0x90>
				SystemCoreClock *= 3U;
   809f6:	4a12      	ldr	r2, [pc, #72]	; (80a40 <SystemCoreClockUpdate+0x104>)
   809f8:	4b10      	ldr	r3, [pc, #64]	; (80a3c <SystemCoreClockUpdate+0x100>)
   809fa:	601a      	str	r2, [r3, #0]
				break;
   809fc:	e7e6      	b.n	809cc <SystemCoreClockUpdate+0x90>
				SystemCoreClock *= 2U;
   809fe:	4a12      	ldr	r2, [pc, #72]	; (80a48 <SystemCoreClockUpdate+0x10c>)
   80a00:	4b0e      	ldr	r3, [pc, #56]	; (80a3c <SystemCoreClockUpdate+0x100>)
   80a02:	601a      	str	r2, [r3, #0]
				break;
   80a04:	e7e2      	b.n	809cc <SystemCoreClockUpdate+0x90>
			SystemCoreClock *= ((((PMC->CKGR_PLLAR) & CKGR_PLLAR_MULA_Msk) >> 
   80a06:	4a0b      	ldr	r2, [pc, #44]	; (80a34 <SystemCoreClockUpdate+0xf8>)
   80a08:	6a91      	ldr	r1, [r2, #40]	; 0x28
			SystemCoreClock /= ((((PMC->CKGR_PLLAR) & CKGR_PLLAR_DIVA_Msk) >> 
   80a0a:	6a92      	ldr	r2, [r2, #40]	; 0x28
   80a0c:	480b      	ldr	r0, [pc, #44]	; (80a3c <SystemCoreClockUpdate+0x100>)
			SystemCoreClock *= ((((PMC->CKGR_PLLAR) & CKGR_PLLAR_MULA_Msk) >> 
   80a0e:	f3c1 410a 	ubfx	r1, r1, #16, #11
   80a12:	6803      	ldr	r3, [r0, #0]
   80a14:	fb01 3303 	mla	r3, r1, r3, r3
			SystemCoreClock /= ((((PMC->CKGR_PLLAR) & CKGR_PLLAR_DIVA_Msk) >> 
   80a18:	b2d2      	uxtb	r2, r2
   80a1a:	fbb3 f3f2 	udiv	r3, r3, r2
   80a1e:	6003      	str	r3, [r0, #0]
   80a20:	e7a1      	b.n	80966 <SystemCoreClockUpdate+0x2a>
		SystemCoreClock /= 3U;
   80a22:	4a06      	ldr	r2, [pc, #24]	; (80a3c <SystemCoreClockUpdate+0x100>)
   80a24:	6813      	ldr	r3, [r2, #0]
   80a26:	490a      	ldr	r1, [pc, #40]	; (80a50 <SystemCoreClockUpdate+0x114>)
   80a28:	fba1 1303 	umull	r1, r3, r1, r3
   80a2c:	085b      	lsrs	r3, r3, #1
   80a2e:	6013      	str	r3, [r2, #0]
   80a30:	4770      	bx	lr
   80a32:	bf00      	nop
   80a34:	400e0600 	.word	0x400e0600
   80a38:	400e1a10 	.word	0x400e1a10
   80a3c:	2007012c 	.word	0x2007012c
   80a40:	00b71b00 	.word	0x00b71b00
   80a44:	003d0900 	.word	0x003d0900
   80a48:	007a1200 	.word	0x007a1200
   80a4c:	0e4e1c00 	.word	0x0e4e1c00
   80a50:	aaaaaaab 	.word	0xaaaaaaab

00080a54 <vListInsertEnd>:

	/* Insert a new list item into pxList, but rather than sort the list,
	makes the new list item the last item to be removed by a call to
	pvListGetOwnerOfNextEntry.  This means it has to be the item pointed to by
	the pxIndex member. */
	pxIndex = pxList->pxIndex;
   80a54:	6843      	ldr	r3, [r0, #4]

	pxNewListItem->pxNext = pxIndex->pxNext;
   80a56:	685a      	ldr	r2, [r3, #4]
   80a58:	604a      	str	r2, [r1, #4]
	pxNewListItem->pxPrevious = pxList->pxIndex;
   80a5a:	6842      	ldr	r2, [r0, #4]
   80a5c:	608a      	str	r2, [r1, #8]
	pxIndex->pxNext->pxPrevious = ( volatile xListItem * ) pxNewListItem;
   80a5e:	685a      	ldr	r2, [r3, #4]
   80a60:	6091      	str	r1, [r2, #8]
	pxIndex->pxNext = ( volatile xListItem * ) pxNewListItem;
   80a62:	6059      	str	r1, [r3, #4]
	pxList->pxIndex = ( volatile xListItem * ) pxNewListItem;
   80a64:	6041      	str	r1, [r0, #4]

	/* Remember which list the item is in. */
	pxNewListItem->pvContainer = ( void * ) pxList;
   80a66:	6108      	str	r0, [r1, #16]

	( pxList->uxNumberOfItems )++;
   80a68:	6803      	ldr	r3, [r0, #0]
   80a6a:	3301      	adds	r3, #1
   80a6c:	6003      	str	r3, [r0, #0]
   80a6e:	4770      	bx	lr

00080a70 <uxListRemove>:

unsigned portBASE_TYPE uxListRemove( xListItem *pxItemToRemove )
{
xList * pxList;

	pxItemToRemove->pxNext->pxPrevious = pxItemToRemove->pxPrevious;
   80a70:	6843      	ldr	r3, [r0, #4]
   80a72:	6882      	ldr	r2, [r0, #8]
   80a74:	609a      	str	r2, [r3, #8]
	pxItemToRemove->pxPrevious->pxNext = pxItemToRemove->pxNext;
   80a76:	6883      	ldr	r3, [r0, #8]
   80a78:	6842      	ldr	r2, [r0, #4]
   80a7a:	605a      	str	r2, [r3, #4]

	/* The list item knows which list it is in.  Obtain the list from the list
	item. */
	pxList = ( xList * ) pxItemToRemove->pvContainer;
   80a7c:	6903      	ldr	r3, [r0, #16]

	/* Make sure the index is left pointing to a valid item. */
	if( pxList->pxIndex == pxItemToRemove )
   80a7e:	685a      	ldr	r2, [r3, #4]
   80a80:	4290      	cmp	r0, r2
	{
		pxList->pxIndex = pxItemToRemove->pxPrevious;
   80a82:	bf04      	itt	eq
   80a84:	6882      	ldreq	r2, [r0, #8]
   80a86:	605a      	streq	r2, [r3, #4]
	}

	pxItemToRemove->pvContainer = NULL;
   80a88:	2200      	movs	r2, #0
   80a8a:	6102      	str	r2, [r0, #16]
	( pxList->uxNumberOfItems )--;
   80a8c:	681a      	ldr	r2, [r3, #0]
   80a8e:	3a01      	subs	r2, #1
   80a90:	601a      	str	r2, [r3, #0]

	return pxList->uxNumberOfItems;
   80a92:	6818      	ldr	r0, [r3, #0]
}
   80a94:	4770      	bx	lr
	...

00080a98 <SVC_Handler>:
}
/*-----------------------------------------------------------*/

__attribute__ (( naked )) void SVC_Handler( void )
{
	__asm volatile (
   80a98:	4b06      	ldr	r3, [pc, #24]	; (80ab4 <pxCurrentTCBConst2>)
   80a9a:	6819      	ldr	r1, [r3, #0]
   80a9c:	6808      	ldr	r0, [r1, #0]
   80a9e:	e8b0 0ff0 	ldmia.w	r0!, {r4, r5, r6, r7, r8, r9, sl, fp}
   80aa2:	f380 8809 	msr	PSP, r0
   80aa6:	f04f 0000 	mov.w	r0, #0
   80aaa:	f380 8811 	msr	BASEPRI, r0
   80aae:	f04e 0e0d 	orr.w	lr, lr, #13
   80ab2:	4770      	bx	lr

00080ab4 <pxCurrentTCBConst2>:
   80ab4:	20070620 	.word	0x20070620

00080ab8 <vPortYieldFromISR>:
/*-----------------------------------------------------------*/

void vPortYieldFromISR( void )
{
	/* Set a PendSV to request a context switch. */
	portNVIC_INT_CTRL_REG = portNVIC_PENDSVSET_BIT;
   80ab8:	f04f 5280 	mov.w	r2, #268435456	; 0x10000000
   80abc:	4b01      	ldr	r3, [pc, #4]	; (80ac4 <vPortYieldFromISR+0xc>)
   80abe:	601a      	str	r2, [r3, #0]
   80ac0:	4770      	bx	lr
   80ac2:	bf00      	nop
   80ac4:	e000ed04 	.word	0xe000ed04

00080ac8 <ulPortSetInterruptMask>:
}
/*-----------------------------------------------------------*/

__attribute__(( naked )) unsigned long ulPortSetInterruptMask( void )
{
	__asm volatile														\
   80ac8:	f3ef 8011 	mrs	r0, BASEPRI
   80acc:	f04f 01a0 	mov.w	r1, #160	; 0xa0
   80ad0:	f381 8811 	msr	BASEPRI, r1
   80ad4:	4770      	bx	lr
	);

	/* This return will not be reached but is necessary to prevent compiler
	warnings. */
	return 0;
}
   80ad6:	2000      	movs	r0, #0

00080ad8 <vPortClearInterruptMask>:
/*-----------------------------------------------------------*/

__attribute__(( naked )) void vPortClearInterruptMask( unsigned long ulNewMaskValue )
{
	__asm volatile													\
   80ad8:	f380 8811 	msr	BASEPRI, r0
   80adc:	4770      	bx	lr
	...

00080ae0 <PendSV_Handler>:

__attribute__(( naked )) void PendSV_Handler( void )
{
	/* This is a naked function. */

	__asm volatile
   80ae0:	f3ef 8009 	mrs	r0, PSP
   80ae4:	4b0c      	ldr	r3, [pc, #48]	; (80b18 <pxCurrentTCBConst>)
   80ae6:	681a      	ldr	r2, [r3, #0]
   80ae8:	e920 0ff0 	stmdb	r0!, {r4, r5, r6, r7, r8, r9, sl, fp}
   80aec:	6010      	str	r0, [r2, #0]
   80aee:	e92d 4008 	stmdb	sp!, {r3, lr}
   80af2:	f04f 00a0 	mov.w	r0, #160	; 0xa0
   80af6:	f380 8811 	msr	BASEPRI, r0
   80afa:	f000 f935 	bl	80d68 <vTaskSwitchContext>
   80afe:	f04f 0000 	mov.w	r0, #0
   80b02:	f380 8811 	msr	BASEPRI, r0
   80b06:	e8bd 4008 	ldmia.w	sp!, {r3, lr}
   80b0a:	6819      	ldr	r1, [r3, #0]
   80b0c:	6808      	ldr	r0, [r1, #0]
   80b0e:	e8b0 0ff0 	ldmia.w	r0!, {r4, r5, r6, r7, r8, r9, sl, fp}
   80b12:	f380 8809 	msr	PSP, r0
   80b16:	4770      	bx	lr

00080b18 <pxCurrentTCBConst>:
   80b18:	20070620 	.word	0x20070620

00080b1c <SysTick_Handler>:
	);
}
/*-----------------------------------------------------------*/

void SysTick_Handler( void )
{
   80b1c:	b508      	push	{r3, lr}
	/* If using preemption, also force a context switch. */
	#if configUSE_PREEMPTION == 1
		portNVIC_INT_CTRL_REG = portNVIC_PENDSVSET_BIT;
   80b1e:	f04f 5280 	mov.w	r2, #268435456	; 0x10000000
   80b22:	4b05      	ldr	r3, [pc, #20]	; (80b38 <SysTick_Handler+0x1c>)
   80b24:	601a      	str	r2, [r3, #0]
	to generate the tick interrupt. */
	#if configUSE_TICKLESS_IDLE == 1
		portNVIC_SYSTICK_LOAD_REG = ulTimerReloadValueForOneTick;
	#endif

	( void ) portSET_INTERRUPT_MASK_FROM_ISR();
   80b26:	4b05      	ldr	r3, [pc, #20]	; (80b3c <SysTick_Handler+0x20>)
   80b28:	4798      	blx	r3
	{
		vTaskIncrementTick();
   80b2a:	4b05      	ldr	r3, [pc, #20]	; (80b40 <SysTick_Handler+0x24>)
   80b2c:	4798      	blx	r3
	}
	portCLEAR_INTERRUPT_MASK_FROM_ISR( 0 );
   80b2e:	2000      	movs	r0, #0
   80b30:	4b04      	ldr	r3, [pc, #16]	; (80b44 <SysTick_Handler+0x28>)
   80b32:	4798      	blx	r3
   80b34:	bd08      	pop	{r3, pc}
   80b36:	bf00      	nop
   80b38:	e000ed04 	.word	0xe000ed04
   80b3c:	00080ac9 	.word	0x00080ac9
   80b40:	00080c41 	.word	0x00080c41
   80b44:	00080ad9 	.word	0x00080ad9

00080b48 <prvCopyDataToQueue>:

#endif
/*-----------------------------------------------------------*/

static void prvCopyDataToQueue( xQUEUE *pxQueue, const void *pvItemToQueue, portBASE_TYPE xPosition )
{
   80b48:	b510      	push	{r4, lr}
   80b4a:	4604      	mov	r4, r0
	if( pxQueue->uxItemSize == ( unsigned portBASE_TYPE ) 0 )
   80b4c:	6c03      	ldr	r3, [r0, #64]	; 0x40
   80b4e:	b95b      	cbnz	r3, 80b68 <prvCopyDataToQueue+0x20>
	{
		#if ( configUSE_MUTEXES == 1 )
		{
			if( pxQueue->uxQueueType == queueQUEUE_IS_MUTEX )
   80b50:	6803      	ldr	r3, [r0, #0]
   80b52:	b11b      	cbz	r3, 80b5c <prvCopyDataToQueue+0x14>
		{
			pxQueue->pcReadFrom = ( pxQueue->pcTail - pxQueue->uxItemSize );
		}
	}

	++( pxQueue->uxMessagesWaiting );
   80b54:	6ba3      	ldr	r3, [r4, #56]	; 0x38
   80b56:	3301      	adds	r3, #1
   80b58:	63a3      	str	r3, [r4, #56]	; 0x38
   80b5a:	bd10      	pop	{r4, pc}
				vTaskPriorityDisinherit( ( void * ) pxQueue->pxMutexHolder );
   80b5c:	6840      	ldr	r0, [r0, #4]
   80b5e:	4b12      	ldr	r3, [pc, #72]	; (80ba8 <prvCopyDataToQueue+0x60>)
   80b60:	4798      	blx	r3
				pxQueue->pxMutexHolder = NULL;
   80b62:	2300      	movs	r3, #0
   80b64:	6063      	str	r3, [r4, #4]
   80b66:	e7f5      	b.n	80b54 <prvCopyDataToQueue+0xc>
	else if( xPosition == queueSEND_TO_BACK )
   80b68:	b96a      	cbnz	r2, 80b86 <prvCopyDataToQueue+0x3e>
		memcpy( ( void * ) pxQueue->pcWriteTo, pvItemToQueue, ( unsigned ) pxQueue->uxItemSize );
   80b6a:	461a      	mov	r2, r3
   80b6c:	6880      	ldr	r0, [r0, #8]
   80b6e:	4b0f      	ldr	r3, [pc, #60]	; (80bac <prvCopyDataToQueue+0x64>)
   80b70:	4798      	blx	r3
		pxQueue->pcWriteTo += pxQueue->uxItemSize;
   80b72:	68a3      	ldr	r3, [r4, #8]
   80b74:	6c22      	ldr	r2, [r4, #64]	; 0x40
   80b76:	4413      	add	r3, r2
   80b78:	60a3      	str	r3, [r4, #8]
		if( pxQueue->pcWriteTo >= pxQueue->pcTail )
   80b7a:	6862      	ldr	r2, [r4, #4]
   80b7c:	4293      	cmp	r3, r2
   80b7e:	d3e9      	bcc.n	80b54 <prvCopyDataToQueue+0xc>
			pxQueue->pcWriteTo = pxQueue->pcHead;
   80b80:	6823      	ldr	r3, [r4, #0]
   80b82:	60a3      	str	r3, [r4, #8]
   80b84:	e7e6      	b.n	80b54 <prvCopyDataToQueue+0xc>
		memcpy( ( void * ) pxQueue->pcReadFrom, pvItemToQueue, ( unsigned ) pxQueue->uxItemSize );
   80b86:	461a      	mov	r2, r3
   80b88:	68c0      	ldr	r0, [r0, #12]
   80b8a:	4b08      	ldr	r3, [pc, #32]	; (80bac <prvCopyDataToQueue+0x64>)
   80b8c:	4798      	blx	r3
		pxQueue->pcReadFrom -= pxQueue->uxItemSize;
   80b8e:	6c22      	ldr	r2, [r4, #64]	; 0x40
   80b90:	4252      	negs	r2, r2
   80b92:	68e3      	ldr	r3, [r4, #12]
   80b94:	4413      	add	r3, r2
   80b96:	60e3      	str	r3, [r4, #12]
		if( pxQueue->pcReadFrom < pxQueue->pcHead )
   80b98:	6821      	ldr	r1, [r4, #0]
   80b9a:	428b      	cmp	r3, r1
   80b9c:	d2da      	bcs.n	80b54 <prvCopyDataToQueue+0xc>
			pxQueue->pcReadFrom = ( pxQueue->pcTail - pxQueue->uxItemSize );
   80b9e:	6863      	ldr	r3, [r4, #4]
   80ba0:	441a      	add	r2, r3
   80ba2:	60e2      	str	r2, [r4, #12]
   80ba4:	e7d6      	b.n	80b54 <prvCopyDataToQueue+0xc>
   80ba6:	bf00      	nop
   80ba8:	00080e8d 	.word	0x00080e8d
   80bac:	00080f45 	.word	0x00080f45

00080bb0 <xQueueGenericSendFromISR>:
{
   80bb0:	e92d 41f0 	stmdb	sp!, {r4, r5, r6, r7, r8, lr}
	configASSERT( pxQueue );
   80bb4:	b190      	cbz	r0, 80bdc <xQueueGenericSendFromISR+0x2c>
   80bb6:	460e      	mov	r6, r1
   80bb8:	4615      	mov	r5, r2
   80bba:	4698      	mov	r8, r3
   80bbc:	4604      	mov	r4, r0
	configASSERT( !( ( pvItemToQueue == NULL ) && ( pxQueue->uxItemSize != ( unsigned portBASE_TYPE ) 0U ) ) );
   80bbe:	b189      	cbz	r1, 80be4 <xQueueGenericSendFromISR+0x34>
	uxSavedInterruptStatus = portSET_INTERRUPT_MASK_FROM_ISR();
   80bc0:	4b1b      	ldr	r3, [pc, #108]	; (80c30 <xQueueGenericSendFromISR+0x80>)
   80bc2:	4798      	blx	r3
   80bc4:	4607      	mov	r7, r0
		if( pxQueue->uxMessagesWaiting < pxQueue->uxLength )
   80bc6:	6ba2      	ldr	r2, [r4, #56]	; 0x38
   80bc8:	6be3      	ldr	r3, [r4, #60]	; 0x3c
   80bca:	429a      	cmp	r2, r3
   80bcc:	d311      	bcc.n	80bf2 <xQueueGenericSendFromISR+0x42>
			xReturn = errQUEUE_FULL;
   80bce:	2400      	movs	r4, #0
	portCLEAR_INTERRUPT_MASK_FROM_ISR( uxSavedInterruptStatus );
   80bd0:	4638      	mov	r0, r7
   80bd2:	4b18      	ldr	r3, [pc, #96]	; (80c34 <xQueueGenericSendFromISR+0x84>)
   80bd4:	4798      	blx	r3
}
   80bd6:	4620      	mov	r0, r4
   80bd8:	e8bd 81f0 	ldmia.w	sp!, {r4, r5, r6, r7, r8, pc}
	configASSERT( pxQueue );
   80bdc:	4b14      	ldr	r3, [pc, #80]	; (80c30 <xQueueGenericSendFromISR+0x80>)
   80bde:	4798      	blx	r3
   80be0:	bf00      	nop
   80be2:	e7fd      	b.n	80be0 <xQueueGenericSendFromISR+0x30>
	configASSERT( !( ( pvItemToQueue == NULL ) && ( pxQueue->uxItemSize != ( unsigned portBASE_TYPE ) 0U ) ) );
   80be4:	6c03      	ldr	r3, [r0, #64]	; 0x40
   80be6:	2b00      	cmp	r3, #0
   80be8:	d0ea      	beq.n	80bc0 <xQueueGenericSendFromISR+0x10>
   80bea:	4b11      	ldr	r3, [pc, #68]	; (80c30 <xQueueGenericSendFromISR+0x80>)
   80bec:	4798      	blx	r3
   80bee:	bf00      	nop
   80bf0:	e7fd      	b.n	80bee <xQueueGenericSendFromISR+0x3e>
			prvCopyDataToQueue( pxQueue, pvItemToQueue, xCopyPosition );
   80bf2:	4642      	mov	r2, r8
   80bf4:	4631      	mov	r1, r6
   80bf6:	4620      	mov	r0, r4
   80bf8:	4b0f      	ldr	r3, [pc, #60]	; (80c38 <xQueueGenericSendFromISR+0x88>)
   80bfa:	4798      	blx	r3
			if( pxQueue->xTxLock == queueUNLOCKED )
   80bfc:	6ca3      	ldr	r3, [r4, #72]	; 0x48
   80bfe:	f1b3 3fff 	cmp.w	r3, #4294967295
   80c02:	d10a      	bne.n	80c1a <xQueueGenericSendFromISR+0x6a>
				if( listLIST_IS_EMPTY( &( pxQueue->xTasksWaitingToReceive ) ) == pdFALSE )
   80c04:	6a63      	ldr	r3, [r4, #36]	; 0x24
   80c06:	b16b      	cbz	r3, 80c24 <xQueueGenericSendFromISR+0x74>
					if( xTaskRemoveFromEventList( &( pxQueue->xTasksWaitingToReceive ) ) != pdFALSE )
   80c08:	f104 0024 	add.w	r0, r4, #36	; 0x24
   80c0c:	4b0b      	ldr	r3, [pc, #44]	; (80c3c <xQueueGenericSendFromISR+0x8c>)
   80c0e:	4798      	blx	r3
   80c10:	b150      	cbz	r0, 80c28 <xQueueGenericSendFromISR+0x78>
						if( pxHigherPriorityTaskWoken != NULL )
   80c12:	b15d      	cbz	r5, 80c2c <xQueueGenericSendFromISR+0x7c>
							*pxHigherPriorityTaskWoken = pdTRUE;
   80c14:	2401      	movs	r4, #1
   80c16:	602c      	str	r4, [r5, #0]
   80c18:	e7da      	b.n	80bd0 <xQueueGenericSendFromISR+0x20>
				++( pxQueue->xTxLock );
   80c1a:	6ca3      	ldr	r3, [r4, #72]	; 0x48
   80c1c:	3301      	adds	r3, #1
   80c1e:	64a3      	str	r3, [r4, #72]	; 0x48
			xReturn = pdPASS;
   80c20:	2401      	movs	r4, #1
   80c22:	e7d5      	b.n	80bd0 <xQueueGenericSendFromISR+0x20>
   80c24:	2401      	movs	r4, #1
   80c26:	e7d3      	b.n	80bd0 <xQueueGenericSendFromISR+0x20>
   80c28:	2401      	movs	r4, #1
   80c2a:	e7d1      	b.n	80bd0 <xQueueGenericSendFromISR+0x20>
   80c2c:	2401      	movs	r4, #1
   80c2e:	e7cf      	b.n	80bd0 <xQueueGenericSendFromISR+0x20>
   80c30:	00080ac9 	.word	0x00080ac9
   80c34:	00080ad9 	.word	0x00080ad9
   80c38:	00080b49 	.word	0x00080b49
   80c3c:	00080e09 	.word	0x00080e09

00080c40 <vTaskIncrementTick>:

	/* Called by the portable layer each time a tick interrupt occurs.
	Increments the tick then checks to see if the new tick value will cause any
	tasks to be unblocked. */
	traceTASK_INCREMENT_TICK( xTickCount );
	if( uxSchedulerSuspended == ( unsigned portBASE_TYPE ) pdFALSE )
   80c40:	4b3d      	ldr	r3, [pc, #244]	; (80d38 <vTaskIncrementTick+0xf8>)
   80c42:	681b      	ldr	r3, [r3, #0]
   80c44:	2b00      	cmp	r3, #0
   80c46:	d16f      	bne.n	80d28 <vTaskIncrementTick+0xe8>
{
   80c48:	e92d 41f0 	stmdb	sp!, {r4, r5, r6, r7, r8, lr}
	{
		++xTickCount;
   80c4c:	4b3b      	ldr	r3, [pc, #236]	; (80d3c <vTaskIncrementTick+0xfc>)
   80c4e:	681a      	ldr	r2, [r3, #0]
   80c50:	3201      	adds	r2, #1
   80c52:	601a      	str	r2, [r3, #0]
		if( xTickCount == ( portTickType ) 0U )
   80c54:	681b      	ldr	r3, [r3, #0]
   80c56:	b9ab      	cbnz	r3, 80c84 <vTaskIncrementTick+0x44>
			xList *pxTemp;

			/* Tick count has overflowed so we need to swap the delay lists.
			If there are any items in pxDelayedTaskList here then there is
			an error! */
			configASSERT( ( listLIST_IS_EMPTY( pxDelayedTaskList ) ) );
   80c58:	4b39      	ldr	r3, [pc, #228]	; (80d40 <vTaskIncrementTick+0x100>)
   80c5a:	681b      	ldr	r3, [r3, #0]
   80c5c:	681b      	ldr	r3, [r3, #0]
   80c5e:	2b00      	cmp	r3, #0
   80c60:	d128      	bne.n	80cb4 <vTaskIncrementTick+0x74>

			pxTemp = pxDelayedTaskList;
   80c62:	4b37      	ldr	r3, [pc, #220]	; (80d40 <vTaskIncrementTick+0x100>)
   80c64:	6819      	ldr	r1, [r3, #0]
			pxDelayedTaskList = pxOverflowDelayedTaskList;
   80c66:	4a37      	ldr	r2, [pc, #220]	; (80d44 <vTaskIncrementTick+0x104>)
   80c68:	6810      	ldr	r0, [r2, #0]
   80c6a:	6018      	str	r0, [r3, #0]
			pxOverflowDelayedTaskList = pxTemp;
   80c6c:	6011      	str	r1, [r2, #0]
			xNumOfOverflows++;
   80c6e:	4936      	ldr	r1, [pc, #216]	; (80d48 <vTaskIncrementTick+0x108>)
   80c70:	680a      	ldr	r2, [r1, #0]
   80c72:	3201      	adds	r2, #1
   80c74:	600a      	str	r2, [r1, #0]

			if( listLIST_IS_EMPTY( pxDelayedTaskList ) != pdFALSE )
   80c76:	681b      	ldr	r3, [r3, #0]
   80c78:	681b      	ldr	r3, [r3, #0]
   80c7a:	b9fb      	cbnz	r3, 80cbc <vTaskIncrementTick+0x7c>
				/* The new current delayed list is empty.  Set
				xNextTaskUnblockTime to the maximum possible value so it is
				extremely unlikely that the
				if( xTickCount >= xNextTaskUnblockTime ) test will pass until
				there is an item in the delayed list. */
				xNextTaskUnblockTime = portMAX_DELAY;
   80c7c:	f04f 32ff 	mov.w	r2, #4294967295
   80c80:	4b32      	ldr	r3, [pc, #200]	; (80d4c <vTaskIncrementTick+0x10c>)
   80c82:	601a      	str	r2, [r3, #0]
				xNextTaskUnblockTime = listGET_LIST_ITEM_VALUE( &( pxTCB->xGenericListItem ) );
			}
		}

		/* See if this tick has made a timeout expire. */
		prvCheckDelayedTasks();
   80c84:	4b2d      	ldr	r3, [pc, #180]	; (80d3c <vTaskIncrementTick+0xfc>)
   80c86:	681a      	ldr	r2, [r3, #0]
   80c88:	4b30      	ldr	r3, [pc, #192]	; (80d4c <vTaskIncrementTick+0x10c>)
   80c8a:	681b      	ldr	r3, [r3, #0]
   80c8c:	429a      	cmp	r2, r3
   80c8e:	d350      	bcc.n	80d32 <vTaskIncrementTick+0xf2>
   80c90:	4b2b      	ldr	r3, [pc, #172]	; (80d40 <vTaskIncrementTick+0x100>)
   80c92:	681b      	ldr	r3, [r3, #0]
   80c94:	681b      	ldr	r3, [r3, #0]
   80c96:	b1cb      	cbz	r3, 80ccc <vTaskIncrementTick+0x8c>
   80c98:	4b29      	ldr	r3, [pc, #164]	; (80d40 <vTaskIncrementTick+0x100>)
   80c9a:	681b      	ldr	r3, [r3, #0]
   80c9c:	68db      	ldr	r3, [r3, #12]
   80c9e:	68dc      	ldr	r4, [r3, #12]
   80ca0:	6863      	ldr	r3, [r4, #4]
   80ca2:	4a26      	ldr	r2, [pc, #152]	; (80d3c <vTaskIncrementTick+0xfc>)
   80ca4:	6812      	ldr	r2, [r2, #0]
   80ca6:	4293      	cmp	r3, r2
   80ca8:	d816      	bhi.n	80cd8 <vTaskIncrementTick+0x98>
   80caa:	4e29      	ldr	r6, [pc, #164]	; (80d50 <vTaskIncrementTick+0x110>)
   80cac:	4f29      	ldr	r7, [pc, #164]	; (80d54 <vTaskIncrementTick+0x114>)
   80cae:	f8df 80b4 	ldr.w	r8, [pc, #180]	; 80d64 <vTaskIncrementTick+0x124>
   80cb2:	e02f      	b.n	80d14 <vTaskIncrementTick+0xd4>
			configASSERT( ( listLIST_IS_EMPTY( pxDelayedTaskList ) ) );
   80cb4:	4b28      	ldr	r3, [pc, #160]	; (80d58 <vTaskIncrementTick+0x118>)
   80cb6:	4798      	blx	r3
   80cb8:	bf00      	nop
   80cba:	e7fd      	b.n	80cb8 <vTaskIncrementTick+0x78>
				pxTCB = ( tskTCB * ) listGET_OWNER_OF_HEAD_ENTRY( pxDelayedTaskList );
   80cbc:	4b20      	ldr	r3, [pc, #128]	; (80d40 <vTaskIncrementTick+0x100>)
   80cbe:	681b      	ldr	r3, [r3, #0]
   80cc0:	68db      	ldr	r3, [r3, #12]
   80cc2:	68db      	ldr	r3, [r3, #12]
				xNextTaskUnblockTime = listGET_LIST_ITEM_VALUE( &( pxTCB->xGenericListItem ) );
   80cc4:	685a      	ldr	r2, [r3, #4]
   80cc6:	4b21      	ldr	r3, [pc, #132]	; (80d4c <vTaskIncrementTick+0x10c>)
   80cc8:	601a      	str	r2, [r3, #0]
   80cca:	e7db      	b.n	80c84 <vTaskIncrementTick+0x44>
		prvCheckDelayedTasks();
   80ccc:	f04f 32ff 	mov.w	r2, #4294967295
   80cd0:	4b1e      	ldr	r3, [pc, #120]	; (80d4c <vTaskIncrementTick+0x10c>)
   80cd2:	601a      	str	r2, [r3, #0]
   80cd4:	e8bd 81f0 	ldmia.w	sp!, {r4, r5, r6, r7, r8, pc}
   80cd8:	4a1c      	ldr	r2, [pc, #112]	; (80d4c <vTaskIncrementTick+0x10c>)
   80cda:	6013      	str	r3, [r2, #0]
   80cdc:	e8bd 81f0 	ldmia.w	sp!, {r4, r5, r6, r7, r8, pc}
   80ce0:	6ae0      	ldr	r0, [r4, #44]	; 0x2c
   80ce2:	683b      	ldr	r3, [r7, #0]
   80ce4:	4298      	cmp	r0, r3
   80ce6:	bf88      	it	hi
   80ce8:	6038      	strhi	r0, [r7, #0]
   80cea:	eb00 0080 	add.w	r0, r0, r0, lsl #2
   80cee:	4629      	mov	r1, r5
   80cf0:	eb08 0080 	add.w	r0, r8, r0, lsl #2
   80cf4:	4b19      	ldr	r3, [pc, #100]	; (80d5c <vTaskIncrementTick+0x11c>)
   80cf6:	4798      	blx	r3
   80cf8:	4b11      	ldr	r3, [pc, #68]	; (80d40 <vTaskIncrementTick+0x100>)
   80cfa:	681b      	ldr	r3, [r3, #0]
   80cfc:	681b      	ldr	r3, [r3, #0]
   80cfe:	2b00      	cmp	r3, #0
   80d00:	d0e4      	beq.n	80ccc <vTaskIncrementTick+0x8c>
   80d02:	4b0f      	ldr	r3, [pc, #60]	; (80d40 <vTaskIncrementTick+0x100>)
   80d04:	681b      	ldr	r3, [r3, #0]
   80d06:	68db      	ldr	r3, [r3, #12]
   80d08:	68dc      	ldr	r4, [r3, #12]
   80d0a:	6863      	ldr	r3, [r4, #4]
   80d0c:	4a0b      	ldr	r2, [pc, #44]	; (80d3c <vTaskIncrementTick+0xfc>)
   80d0e:	6812      	ldr	r2, [r2, #0]
   80d10:	4293      	cmp	r3, r2
   80d12:	d8e1      	bhi.n	80cd8 <vTaskIncrementTick+0x98>
   80d14:	1d25      	adds	r5, r4, #4
   80d16:	4628      	mov	r0, r5
   80d18:	47b0      	blx	r6
   80d1a:	6aa3      	ldr	r3, [r4, #40]	; 0x28
   80d1c:	2b00      	cmp	r3, #0
   80d1e:	d0df      	beq.n	80ce0 <vTaskIncrementTick+0xa0>
   80d20:	f104 0018 	add.w	r0, r4, #24
   80d24:	47b0      	blx	r6
   80d26:	e7db      	b.n	80ce0 <vTaskIncrementTick+0xa0>
	}
	else
	{
		++uxMissedTicks;
   80d28:	4a0d      	ldr	r2, [pc, #52]	; (80d60 <vTaskIncrementTick+0x120>)
   80d2a:	6813      	ldr	r3, [r2, #0]
   80d2c:	3301      	adds	r3, #1
   80d2e:	6013      	str	r3, [r2, #0]
		{
			vApplicationTickHook();
		}
	}
	#endif
}
   80d30:	4770      	bx	lr
   80d32:	e8bd 81f0 	ldmia.w	sp!, {r4, r5, r6, r7, r8, pc}
   80d36:	bf00      	nop
   80d38:	20070694 	.word	0x20070694
   80d3c:	200706b8 	.word	0x200706b8
   80d40:	20070624 	.word	0x20070624
   80d44:	20070628 	.word	0x20070628
   80d48:	200706a0 	.word	0x200706a0
   80d4c:	20070130 	.word	0x20070130
   80d50:	00080a71 	.word	0x00080a71
   80d54:	20070698 	.word	0x20070698
   80d58:	00080ac9 	.word	0x00080ac9
   80d5c:	00080a55 	.word	0x00080a55
   80d60:	20070690 	.word	0x20070690
   80d64:	2007062c 	.word	0x2007062c

00080d68 <vTaskSwitchContext>:
#endif
/*-----------------------------------------------------------*/

void vTaskSwitchContext( void )
{
	if( uxSchedulerSuspended != ( unsigned portBASE_TYPE ) pdFALSE )
   80d68:	4b21      	ldr	r3, [pc, #132]	; (80df0 <vTaskSwitchContext+0x88>)
   80d6a:	681b      	ldr	r3, [r3, #0]
   80d6c:	b9eb      	cbnz	r3, 80daa <vTaskSwitchContext+0x42>
{
   80d6e:	b510      	push	{r4, lr}
		#endif

		taskFIRST_CHECK_FOR_STACK_OVERFLOW();
		taskSECOND_CHECK_FOR_STACK_OVERFLOW();

		taskSELECT_HIGHEST_PRIORITY_TASK();
   80d70:	4b20      	ldr	r3, [pc, #128]	; (80df4 <vTaskSwitchContext+0x8c>)
   80d72:	681b      	ldr	r3, [r3, #0]
   80d74:	eb03 0383 	add.w	r3, r3, r3, lsl #2
   80d78:	009b      	lsls	r3, r3, #2
   80d7a:	4a1f      	ldr	r2, [pc, #124]	; (80df8 <vTaskSwitchContext+0x90>)
   80d7c:	58d3      	ldr	r3, [r2, r3]
   80d7e:	b9c3      	cbnz	r3, 80db2 <vTaskSwitchContext+0x4a>
   80d80:	4b1c      	ldr	r3, [pc, #112]	; (80df4 <vTaskSwitchContext+0x8c>)
   80d82:	681b      	ldr	r3, [r3, #0]
   80d84:	b16b      	cbz	r3, 80da2 <vTaskSwitchContext+0x3a>
   80d86:	4a1b      	ldr	r2, [pc, #108]	; (80df4 <vTaskSwitchContext+0x8c>)
   80d88:	491b      	ldr	r1, [pc, #108]	; (80df8 <vTaskSwitchContext+0x90>)
   80d8a:	6813      	ldr	r3, [r2, #0]
   80d8c:	3b01      	subs	r3, #1
   80d8e:	6013      	str	r3, [r2, #0]
   80d90:	6813      	ldr	r3, [r2, #0]
   80d92:	eb03 0383 	add.w	r3, r3, r3, lsl #2
   80d96:	f851 3023 	ldr.w	r3, [r1, r3, lsl #2]
   80d9a:	b953      	cbnz	r3, 80db2 <vTaskSwitchContext+0x4a>
   80d9c:	6813      	ldr	r3, [r2, #0]
   80d9e:	2b00      	cmp	r3, #0
   80da0:	d1f3      	bne.n	80d8a <vTaskSwitchContext+0x22>
   80da2:	4b16      	ldr	r3, [pc, #88]	; (80dfc <vTaskSwitchContext+0x94>)
   80da4:	4798      	blx	r3
   80da6:	bf00      	nop
   80da8:	e7fd      	b.n	80da6 <vTaskSwitchContext+0x3e>
		xMissedYield = pdTRUE;
   80daa:	2201      	movs	r2, #1
   80dac:	4b14      	ldr	r3, [pc, #80]	; (80e00 <vTaskSwitchContext+0x98>)
   80dae:	601a      	str	r2, [r3, #0]
   80db0:	4770      	bx	lr
		taskSELECT_HIGHEST_PRIORITY_TASK();
   80db2:	4b10      	ldr	r3, [pc, #64]	; (80df4 <vTaskSwitchContext+0x8c>)
   80db4:	681b      	ldr	r3, [r3, #0]
   80db6:	4a10      	ldr	r2, [pc, #64]	; (80df8 <vTaskSwitchContext+0x90>)
   80db8:	0099      	lsls	r1, r3, #2
   80dba:	18c8      	adds	r0, r1, r3
   80dbc:	eb02 0080 	add.w	r0, r2, r0, lsl #2
   80dc0:	6844      	ldr	r4, [r0, #4]
   80dc2:	6864      	ldr	r4, [r4, #4]
   80dc4:	6044      	str	r4, [r0, #4]
   80dc6:	4419      	add	r1, r3
   80dc8:	4602      	mov	r2, r0
   80dca:	3208      	adds	r2, #8
   80dcc:	4294      	cmp	r4, r2
   80dce:	d009      	beq.n	80de4 <vTaskSwitchContext+0x7c>
   80dd0:	eb03 0383 	add.w	r3, r3, r3, lsl #2
   80dd4:	4a08      	ldr	r2, [pc, #32]	; (80df8 <vTaskSwitchContext+0x90>)
   80dd6:	eb02 0383 	add.w	r3, r2, r3, lsl #2
   80dda:	685b      	ldr	r3, [r3, #4]
   80ddc:	68da      	ldr	r2, [r3, #12]
   80dde:	4b09      	ldr	r3, [pc, #36]	; (80e04 <vTaskSwitchContext+0x9c>)
   80de0:	601a      	str	r2, [r3, #0]
   80de2:	bd10      	pop	{r4, pc}
   80de4:	6860      	ldr	r0, [r4, #4]
   80de6:	4a04      	ldr	r2, [pc, #16]	; (80df8 <vTaskSwitchContext+0x90>)
   80de8:	eb02 0281 	add.w	r2, r2, r1, lsl #2
   80dec:	6050      	str	r0, [r2, #4]
   80dee:	e7ef      	b.n	80dd0 <vTaskSwitchContext+0x68>
   80df0:	20070694 	.word	0x20070694
   80df4:	20070698 	.word	0x20070698
   80df8:	2007062c 	.word	0x2007062c
   80dfc:	00080ac9 	.word	0x00080ac9
   80e00:	2007069c 	.word	0x2007069c
   80e04:	20070620 	.word	0x20070620

00080e08 <xTaskRemoveFromEventList>:

#endif /* configUSE_TIMERS */
/*-----------------------------------------------------------*/

signed portBASE_TYPE xTaskRemoveFromEventList( const xList * const pxEventList )
{
   80e08:	b538      	push	{r3, r4, r5, lr}
	get called - the lock count on the queue will get modified instead.  This
	means we can always expect exclusive access to the event list here.

	This function assumes that a check has already been made to ensure that
	pxEventList is not empty. */
	pxUnblockedTCB = ( tskTCB * ) listGET_OWNER_OF_HEAD_ENTRY( pxEventList );
   80e0a:	68c3      	ldr	r3, [r0, #12]
   80e0c:	68dc      	ldr	r4, [r3, #12]
	configASSERT( pxUnblockedTCB );
   80e0e:	b31c      	cbz	r4, 80e58 <xTaskRemoveFromEventList+0x50>
	uxListRemove( &( pxUnblockedTCB->xEventListItem ) );
   80e10:	f104 0518 	add.w	r5, r4, #24
   80e14:	4628      	mov	r0, r5
   80e16:	4b15      	ldr	r3, [pc, #84]	; (80e6c <xTaskRemoveFromEventList+0x64>)
   80e18:	4798      	blx	r3

	if( uxSchedulerSuspended == ( unsigned portBASE_TYPE ) pdFALSE )
   80e1a:	4b15      	ldr	r3, [pc, #84]	; (80e70 <xTaskRemoveFromEventList+0x68>)
   80e1c:	681b      	ldr	r3, [r3, #0]
   80e1e:	b9fb      	cbnz	r3, 80e60 <xTaskRemoveFromEventList+0x58>
	{
		uxListRemove( &( pxUnblockedTCB->xGenericListItem ) );
   80e20:	1d25      	adds	r5, r4, #4
   80e22:	4628      	mov	r0, r5
   80e24:	4b11      	ldr	r3, [pc, #68]	; (80e6c <xTaskRemoveFromEventList+0x64>)
   80e26:	4798      	blx	r3
		prvAddTaskToReadyQueue( pxUnblockedTCB );
   80e28:	6ae0      	ldr	r0, [r4, #44]	; 0x2c
   80e2a:	4b12      	ldr	r3, [pc, #72]	; (80e74 <xTaskRemoveFromEventList+0x6c>)
   80e2c:	681b      	ldr	r3, [r3, #0]
   80e2e:	4298      	cmp	r0, r3
   80e30:	bf84      	itt	hi
   80e32:	4b10      	ldrhi	r3, [pc, #64]	; (80e74 <xTaskRemoveFromEventList+0x6c>)
   80e34:	6018      	strhi	r0, [r3, #0]
   80e36:	eb00 0080 	add.w	r0, r0, r0, lsl #2
   80e3a:	4629      	mov	r1, r5
   80e3c:	4b0e      	ldr	r3, [pc, #56]	; (80e78 <xTaskRemoveFromEventList+0x70>)
   80e3e:	eb03 0080 	add.w	r0, r3, r0, lsl #2
   80e42:	4b0e      	ldr	r3, [pc, #56]	; (80e7c <xTaskRemoveFromEventList+0x74>)
   80e44:	4798      	blx	r3
		/* We cannot access the delayed or ready lists, so will hold this
		task pending until the scheduler is resumed. */
		vListInsertEnd( ( xList * ) &( xPendingReadyList ), &( pxUnblockedTCB->xEventListItem ) );
	}

	if( pxUnblockedTCB->uxPriority >= pxCurrentTCB->uxPriority )
   80e46:	4b0e      	ldr	r3, [pc, #56]	; (80e80 <xTaskRemoveFromEventList+0x78>)
   80e48:	681b      	ldr	r3, [r3, #0]
   80e4a:	6ae0      	ldr	r0, [r4, #44]	; 0x2c
   80e4c:	6adb      	ldr	r3, [r3, #44]	; 0x2c
	{
		xReturn = pdFALSE;
	}

	return xReturn;
}
   80e4e:	4298      	cmp	r0, r3
   80e50:	bf34      	ite	cc
   80e52:	2000      	movcc	r0, #0
   80e54:	2001      	movcs	r0, #1
   80e56:	bd38      	pop	{r3, r4, r5, pc}
	configASSERT( pxUnblockedTCB );
   80e58:	4b0a      	ldr	r3, [pc, #40]	; (80e84 <xTaskRemoveFromEventList+0x7c>)
   80e5a:	4798      	blx	r3
   80e5c:	bf00      	nop
   80e5e:	e7fd      	b.n	80e5c <xTaskRemoveFromEventList+0x54>
		vListInsertEnd( ( xList * ) &( xPendingReadyList ), &( pxUnblockedTCB->xEventListItem ) );
   80e60:	4629      	mov	r1, r5
   80e62:	4809      	ldr	r0, [pc, #36]	; (80e88 <xTaskRemoveFromEventList+0x80>)
   80e64:	4b05      	ldr	r3, [pc, #20]	; (80e7c <xTaskRemoveFromEventList+0x74>)
   80e66:	4798      	blx	r3
   80e68:	e7ed      	b.n	80e46 <xTaskRemoveFromEventList+0x3e>
   80e6a:	bf00      	nop
   80e6c:	00080a71 	.word	0x00080a71
   80e70:	20070694 	.word	0x20070694
   80e74:	20070698 	.word	0x20070698
   80e78:	2007062c 	.word	0x2007062c
   80e7c:	00080a55 	.word	0x00080a55
   80e80:	20070620 	.word	0x20070620
   80e84:	00080ac9 	.word	0x00080ac9
   80e88:	200706a4 	.word	0x200706a4

00080e8c <vTaskPriorityDisinherit>:

	void vTaskPriorityDisinherit( xTaskHandle * const pxMutexHolder )
	{
	tskTCB * const pxTCB = ( tskTCB * ) pxMutexHolder;

		if( pxMutexHolder != NULL )
   80e8c:	b1e8      	cbz	r0, 80eca <vTaskPriorityDisinherit+0x3e>
	{
   80e8e:	b538      	push	{r3, r4, r5, lr}
   80e90:	4604      	mov	r4, r0
		{
			if( pxTCB->uxPriority != pxTCB->uxBasePriority )
   80e92:	6ac1      	ldr	r1, [r0, #44]	; 0x2c
   80e94:	6c82      	ldr	r2, [r0, #72]	; 0x48
   80e96:	4291      	cmp	r1, r2
   80e98:	d016      	beq.n	80ec8 <vTaskPriorityDisinherit+0x3c>
			{
				/* We must be the running task to be able to give the mutex back.
				Remove ourselves from the ready list we currently appear in. */
				if( uxListRemove( ( xListItem * ) &( pxTCB->xGenericListItem ) ) == 0 )
   80e9a:	1d05      	adds	r5, r0, #4
   80e9c:	4628      	mov	r0, r5
   80e9e:	4b0b      	ldr	r3, [pc, #44]	; (80ecc <vTaskPriorityDisinherit+0x40>)
   80ea0:	4798      	blx	r3
				}

				/* Disinherit the priority before adding the task into the new
				ready list. */
				traceTASK_PRIORITY_DISINHERIT( pxTCB, pxTCB->uxBasePriority );
				pxTCB->uxPriority = pxTCB->uxBasePriority;
   80ea2:	6ca0      	ldr	r0, [r4, #72]	; 0x48
   80ea4:	62e0      	str	r0, [r4, #44]	; 0x2c
				listSET_LIST_ITEM_VALUE( &( pxTCB->xEventListItem ), configMAX_PRIORITIES - ( portTickType ) pxTCB->uxPriority );
   80ea6:	f1c0 0305 	rsb	r3, r0, #5
   80eaa:	61a3      	str	r3, [r4, #24]
				prvAddTaskToReadyQueue( pxTCB );
   80eac:	4b08      	ldr	r3, [pc, #32]	; (80ed0 <vTaskPriorityDisinherit+0x44>)
   80eae:	681b      	ldr	r3, [r3, #0]
   80eb0:	4298      	cmp	r0, r3
   80eb2:	bf84      	itt	hi
   80eb4:	4b06      	ldrhi	r3, [pc, #24]	; (80ed0 <vTaskPriorityDisinherit+0x44>)
   80eb6:	6018      	strhi	r0, [r3, #0]
   80eb8:	eb00 0080 	add.w	r0, r0, r0, lsl #2
   80ebc:	4629      	mov	r1, r5
   80ebe:	4b05      	ldr	r3, [pc, #20]	; (80ed4 <vTaskPriorityDisinherit+0x48>)
   80ec0:	eb03 0080 	add.w	r0, r3, r0, lsl #2
   80ec4:	4b04      	ldr	r3, [pc, #16]	; (80ed8 <vTaskPriorityDisinherit+0x4c>)
   80ec6:	4798      	blx	r3
   80ec8:	bd38      	pop	{r3, r4, r5, pc}
   80eca:	4770      	bx	lr
   80ecc:	00080a71 	.word	0x00080a71
   80ed0:	20070698 	.word	0x20070698
   80ed4:	2007062c 	.word	0x2007062c
   80ed8:	00080a55 	.word	0x00080a55

00080edc <main>:
 * Support and FAQ: visit <a href="http://www.atmel.com/design-support/">Atmel Support</a>
 */
#include <asf.h>

int main (void)
{
   80edc:	b508      	push	{r3, lr}
	sysclk_init();
   80ede:	4b03      	ldr	r3, [pc, #12]	; (80eec <main+0x10>)
   80ee0:	4798      	blx	r3
	board_init();
   80ee2:	4b03      	ldr	r3, [pc, #12]	; (80ef0 <main+0x14>)
   80ee4:	4798      	blx	r3

	/* Insert application code here, after the board has been initialized. */
}
   80ee6:	2000      	movs	r0, #0
   80ee8:	bd08      	pop	{r3, pc}
   80eea:	bf00      	nop
   80eec:	00080161 	.word	0x00080161
   80ef0:	0008041d 	.word	0x0008041d

00080ef4 <__libc_init_array>:
   80ef4:	b570      	push	{r4, r5, r6, lr}
   80ef6:	4e0f      	ldr	r6, [pc, #60]	; (80f34 <__libc_init_array+0x40>)
   80ef8:	4d0f      	ldr	r5, [pc, #60]	; (80f38 <__libc_init_array+0x44>)
   80efa:	1b76      	subs	r6, r6, r5
   80efc:	10b6      	asrs	r6, r6, #2
   80efe:	bf18      	it	ne
   80f00:	2400      	movne	r4, #0
   80f02:	d005      	beq.n	80f10 <__libc_init_array+0x1c>
   80f04:	3401      	adds	r4, #1
   80f06:	f855 3b04 	ldr.w	r3, [r5], #4
   80f0a:	4798      	blx	r3
   80f0c:	42a6      	cmp	r6, r4
   80f0e:	d1f9      	bne.n	80f04 <__libc_init_array+0x10>
   80f10:	4e0a      	ldr	r6, [pc, #40]	; (80f3c <__libc_init_array+0x48>)
   80f12:	4d0b      	ldr	r5, [pc, #44]	; (80f40 <__libc_init_array+0x4c>)
   80f14:	f000 f92e 	bl	81174 <_init>
   80f18:	1b76      	subs	r6, r6, r5
   80f1a:	10b6      	asrs	r6, r6, #2
   80f1c:	bf18      	it	ne
   80f1e:	2400      	movne	r4, #0
   80f20:	d006      	beq.n	80f30 <__libc_init_array+0x3c>
   80f22:	3401      	adds	r4, #1
   80f24:	f855 3b04 	ldr.w	r3, [r5], #4
   80f28:	4798      	blx	r3
   80f2a:	42a6      	cmp	r6, r4
   80f2c:	d1f9      	bne.n	80f22 <__libc_init_array+0x2e>
   80f2e:	bd70      	pop	{r4, r5, r6, pc}
   80f30:	bd70      	pop	{r4, r5, r6, pc}
   80f32:	bf00      	nop
   80f34:	00081180 	.word	0x00081180
   80f38:	00081180 	.word	0x00081180
   80f3c:	00081188 	.word	0x00081188
   80f40:	00081180 	.word	0x00081180

00080f44 <memcpy>:
   80f44:	4684      	mov	ip, r0
   80f46:	ea41 0300 	orr.w	r3, r1, r0
   80f4a:	f013 0303 	ands.w	r3, r3, #3
   80f4e:	d149      	bne.n	80fe4 <memcpy+0xa0>
   80f50:	3a40      	subs	r2, #64	; 0x40
   80f52:	d323      	bcc.n	80f9c <memcpy+0x58>
   80f54:	680b      	ldr	r3, [r1, #0]
   80f56:	6003      	str	r3, [r0, #0]
   80f58:	684b      	ldr	r3, [r1, #4]
   80f5a:	6043      	str	r3, [r0, #4]
   80f5c:	688b      	ldr	r3, [r1, #8]
   80f5e:	6083      	str	r3, [r0, #8]
   80f60:	68cb      	ldr	r3, [r1, #12]
   80f62:	60c3      	str	r3, [r0, #12]
   80f64:	690b      	ldr	r3, [r1, #16]
   80f66:	6103      	str	r3, [r0, #16]
   80f68:	694b      	ldr	r3, [r1, #20]
   80f6a:	6143      	str	r3, [r0, #20]
   80f6c:	698b      	ldr	r3, [r1, #24]
   80f6e:	6183      	str	r3, [r0, #24]
   80f70:	69cb      	ldr	r3, [r1, #28]
   80f72:	61c3      	str	r3, [r0, #28]
   80f74:	6a0b      	ldr	r3, [r1, #32]
   80f76:	6203      	str	r3, [r0, #32]
   80f78:	6a4b      	ldr	r3, [r1, #36]	; 0x24
   80f7a:	6243      	str	r3, [r0, #36]	; 0x24
   80f7c:	6a8b      	ldr	r3, [r1, #40]	; 0x28
   80f7e:	6283      	str	r3, [r0, #40]	; 0x28
   80f80:	6acb      	ldr	r3, [r1, #44]	; 0x2c
   80f82:	62c3      	str	r3, [r0, #44]	; 0x2c
   80f84:	6b0b      	ldr	r3, [r1, #48]	; 0x30
   80f86:	6303      	str	r3, [r0, #48]	; 0x30
   80f88:	6b4b      	ldr	r3, [r1, #52]	; 0x34
   80f8a:	6343      	str	r3, [r0, #52]	; 0x34
   80f8c:	6b8b      	ldr	r3, [r1, #56]	; 0x38
   80f8e:	6383      	str	r3, [r0, #56]	; 0x38
   80f90:	6bcb      	ldr	r3, [r1, #60]	; 0x3c
   80f92:	63c3      	str	r3, [r0, #60]	; 0x3c
   80f94:	3040      	adds	r0, #64	; 0x40
   80f96:	3140      	adds	r1, #64	; 0x40
   80f98:	3a40      	subs	r2, #64	; 0x40
   80f9a:	d2db      	bcs.n	80f54 <memcpy+0x10>
   80f9c:	3230      	adds	r2, #48	; 0x30
   80f9e:	d30b      	bcc.n	80fb8 <memcpy+0x74>
   80fa0:	680b      	ldr	r3, [r1, #0]
   80fa2:	6003      	str	r3, [r0, #0]
   80fa4:	684b      	ldr	r3, [r1, #4]
   80fa6:	6043      	str	r3, [r0, #4]
   80fa8:	688b      	ldr	r3, [r1, #8]
   80faa:	6083      	str	r3, [r0, #8]
   80fac:	68cb      	ldr	r3, [r1, #12]
   80fae:	60c3      	str	r3, [r0, #12]
   80fb0:	3010      	adds	r0, #16
   80fb2:	3110      	adds	r1, #16
   80fb4:	3a10      	subs	r2, #16
   80fb6:	d2f3      	bcs.n	80fa0 <memcpy+0x5c>
   80fb8:	320c      	adds	r2, #12
   80fba:	d305      	bcc.n	80fc8 <memcpy+0x84>
   80fbc:	f851 3b04 	ldr.w	r3, [r1], #4
   80fc0:	f840 3b04 	str.w	r3, [r0], #4
   80fc4:	3a04      	subs	r2, #4
   80fc6:	d2f9      	bcs.n	80fbc <memcpy+0x78>
   80fc8:	3204      	adds	r2, #4
   80fca:	d008      	beq.n	80fde <memcpy+0x9a>
   80fcc:	07d2      	lsls	r2, r2, #31
   80fce:	bf1c      	itt	ne
   80fd0:	f811 3b01 	ldrbne.w	r3, [r1], #1
   80fd4:	f800 3b01 	strbne.w	r3, [r0], #1
   80fd8:	d301      	bcc.n	80fde <memcpy+0x9a>
   80fda:	880b      	ldrh	r3, [r1, #0]
   80fdc:	8003      	strh	r3, [r0, #0]
   80fde:	4660      	mov	r0, ip
   80fe0:	4770      	bx	lr
   80fe2:	bf00      	nop
   80fe4:	2a08      	cmp	r2, #8
   80fe6:	d313      	bcc.n	81010 <memcpy+0xcc>
   80fe8:	078b      	lsls	r3, r1, #30
   80fea:	d0b1      	beq.n	80f50 <memcpy+0xc>
   80fec:	f010 0303 	ands.w	r3, r0, #3
   80ff0:	d0ae      	beq.n	80f50 <memcpy+0xc>
   80ff2:	f1c3 0304 	rsb	r3, r3, #4
   80ff6:	1ad2      	subs	r2, r2, r3
   80ff8:	07db      	lsls	r3, r3, #31
   80ffa:	bf1c      	itt	ne
   80ffc:	f811 3b01 	ldrbne.w	r3, [r1], #1
   81000:	f800 3b01 	strbne.w	r3, [r0], #1
   81004:	d3a4      	bcc.n	80f50 <memcpy+0xc>
   81006:	f831 3b02 	ldrh.w	r3, [r1], #2
   8100a:	f820 3b02 	strh.w	r3, [r0], #2
   8100e:	e79f      	b.n	80f50 <memcpy+0xc>
   81010:	3a04      	subs	r2, #4
   81012:	d3d9      	bcc.n	80fc8 <memcpy+0x84>
   81014:	3a01      	subs	r2, #1
   81016:	f811 3b01 	ldrb.w	r3, [r1], #1
   8101a:	f800 3b01 	strb.w	r3, [r0], #1
   8101e:	d2f9      	bcs.n	81014 <memcpy+0xd0>
   81020:	780b      	ldrb	r3, [r1, #0]
   81022:	7003      	strb	r3, [r0, #0]
   81024:	784b      	ldrb	r3, [r1, #1]
   81026:	7043      	strb	r3, [r0, #1]
   81028:	788b      	ldrb	r3, [r1, #2]
   8102a:	7083      	strb	r3, [r0, #2]
   8102c:	4660      	mov	r0, ip
   8102e:	4770      	bx	lr

00081030 <register_fini>:
   81030:	4b02      	ldr	r3, [pc, #8]	; (8103c <register_fini+0xc>)
   81032:	b113      	cbz	r3, 8103a <register_fini+0xa>
   81034:	4802      	ldr	r0, [pc, #8]	; (81040 <register_fini+0x10>)
   81036:	f000 b805 	b.w	81044 <atexit>
   8103a:	4770      	bx	lr
   8103c:	00000000 	.word	0x00000000
   81040:	00081051 	.word	0x00081051

00081044 <atexit>:
   81044:	2300      	movs	r3, #0
   81046:	4601      	mov	r1, r0
   81048:	461a      	mov	r2, r3
   8104a:	4618      	mov	r0, r3
   8104c:	f000 b81e 	b.w	8108c <__register_exitproc>

00081050 <__libc_fini_array>:
   81050:	b538      	push	{r3, r4, r5, lr}
   81052:	4c0a      	ldr	r4, [pc, #40]	; (8107c <__libc_fini_array+0x2c>)
   81054:	4d0a      	ldr	r5, [pc, #40]	; (81080 <__libc_fini_array+0x30>)
   81056:	1b64      	subs	r4, r4, r5
   81058:	10a4      	asrs	r4, r4, #2
   8105a:	d00a      	beq.n	81072 <__libc_fini_array+0x22>
   8105c:	f104 4380 	add.w	r3, r4, #1073741824	; 0x40000000
   81060:	3b01      	subs	r3, #1
   81062:	eb05 0583 	add.w	r5, r5, r3, lsl #2
   81066:	3c01      	subs	r4, #1
   81068:	f855 3904 	ldr.w	r3, [r5], #-4
   8106c:	4798      	blx	r3
   8106e:	2c00      	cmp	r4, #0
   81070:	d1f9      	bne.n	81066 <__libc_fini_array+0x16>
   81072:	e8bd 4038 	ldmia.w	sp!, {r3, r4, r5, lr}
   81076:	f000 b887 	b.w	81188 <_fini>
   8107a:	bf00      	nop
   8107c:	00081198 	.word	0x00081198
   81080:	00081194 	.word	0x00081194

00081084 <__retarget_lock_acquire_recursive>:
   81084:	4770      	bx	lr
   81086:	bf00      	nop

00081088 <__retarget_lock_release_recursive>:
   81088:	4770      	bx	lr
   8108a:	bf00      	nop

0008108c <__register_exitproc>:
   8108c:	e92d 43f8 	stmdb	sp!, {r3, r4, r5, r6, r7, r8, r9, lr}
   81090:	4d2c      	ldr	r5, [pc, #176]	; (81144 <__register_exitproc+0xb8>)
   81092:	4606      	mov	r6, r0
   81094:	6828      	ldr	r0, [r5, #0]
   81096:	4698      	mov	r8, r3
   81098:	460f      	mov	r7, r1
   8109a:	4691      	mov	r9, r2
   8109c:	f7ff fff2 	bl	81084 <__retarget_lock_acquire_recursive>
   810a0:	4b29      	ldr	r3, [pc, #164]	; (81148 <__register_exitproc+0xbc>)
   810a2:	681c      	ldr	r4, [r3, #0]
   810a4:	f8d4 3148 	ldr.w	r3, [r4, #328]	; 0x148
   810a8:	2b00      	cmp	r3, #0
   810aa:	d03e      	beq.n	8112a <__register_exitproc+0x9e>
   810ac:	685a      	ldr	r2, [r3, #4]
   810ae:	2a1f      	cmp	r2, #31
   810b0:	dc1c      	bgt.n	810ec <__register_exitproc+0x60>
   810b2:	f102 0e01 	add.w	lr, r2, #1
   810b6:	b176      	cbz	r6, 810d6 <__register_exitproc+0x4a>
   810b8:	2101      	movs	r1, #1
   810ba:	eb03 0482 	add.w	r4, r3, r2, lsl #2
   810be:	f8c4 9088 	str.w	r9, [r4, #136]	; 0x88
   810c2:	f8d3 0188 	ldr.w	r0, [r3, #392]	; 0x188
   810c6:	4091      	lsls	r1, r2
   810c8:	4308      	orrs	r0, r1
   810ca:	2e02      	cmp	r6, #2
   810cc:	f8c3 0188 	str.w	r0, [r3, #392]	; 0x188
   810d0:	f8c4 8108 	str.w	r8, [r4, #264]	; 0x108
   810d4:	d023      	beq.n	8111e <__register_exitproc+0x92>
   810d6:	3202      	adds	r2, #2
   810d8:	f8c3 e004 	str.w	lr, [r3, #4]
   810dc:	6828      	ldr	r0, [r5, #0]
   810de:	f843 7022 	str.w	r7, [r3, r2, lsl #2]
   810e2:	f7ff ffd1 	bl	81088 <__retarget_lock_release_recursive>
   810e6:	2000      	movs	r0, #0
   810e8:	e8bd 83f8 	ldmia.w	sp!, {r3, r4, r5, r6, r7, r8, r9, pc}
   810ec:	4b17      	ldr	r3, [pc, #92]	; (8114c <__register_exitproc+0xc0>)
   810ee:	b30b      	cbz	r3, 81134 <__register_exitproc+0xa8>
   810f0:	f44f 70c8 	mov.w	r0, #400	; 0x190
   810f4:	f3af 8000 	nop.w
   810f8:	4603      	mov	r3, r0
   810fa:	b1d8      	cbz	r0, 81134 <__register_exitproc+0xa8>
   810fc:	2000      	movs	r0, #0
   810fe:	f8d4 1148 	ldr.w	r1, [r4, #328]	; 0x148
   81102:	f04f 0e01 	mov.w	lr, #1
   81106:	6058      	str	r0, [r3, #4]
   81108:	6019      	str	r1, [r3, #0]
   8110a:	4602      	mov	r2, r0
   8110c:	f8c4 3148 	str.w	r3, [r4, #328]	; 0x148
   81110:	f8c3 0188 	str.w	r0, [r3, #392]	; 0x188
   81114:	f8c3 018c 	str.w	r0, [r3, #396]	; 0x18c
   81118:	2e00      	cmp	r6, #0
   8111a:	d0dc      	beq.n	810d6 <__register_exitproc+0x4a>
   8111c:	e7cc      	b.n	810b8 <__register_exitproc+0x2c>
   8111e:	f8d3 018c 	ldr.w	r0, [r3, #396]	; 0x18c
   81122:	4301      	orrs	r1, r0
   81124:	f8c3 118c 	str.w	r1, [r3, #396]	; 0x18c
   81128:	e7d5      	b.n	810d6 <__register_exitproc+0x4a>
   8112a:	f504 73a6 	add.w	r3, r4, #332	; 0x14c
   8112e:	f8c4 3148 	str.w	r3, [r4, #328]	; 0x148
   81132:	e7bb      	b.n	810ac <__register_exitproc+0x20>
   81134:	6828      	ldr	r0, [r5, #0]
   81136:	f7ff ffa7 	bl	81088 <__retarget_lock_release_recursive>
   8113a:	f04f 30ff 	mov.w	r0, #4294967295
   8113e:	e8bd 83f8 	ldmia.w	sp!, {r3, r4, r5, r6, r7, r8, r9, pc}
   81142:	bf00      	nop
   81144:	20070560 	.word	0x20070560
   81148:	00081170 	.word	0x00081170
   8114c:	00000000 	.word	0x00000000

00081150 <all_twi_definitions>:
   81150:	4008c000 4008c100 00000016 00000016     ...@...@........
   81160:	40090000 40090100 00000017 00000017     ...@...@........

00081170 <_global_impure_ptr>:
   81170:	20070138                                8.. 

00081174 <_init>:
   81174:	b5f8      	push	{r3, r4, r5, r6, r7, lr}
   81176:	bf00      	nop
   81178:	bcf8      	pop	{r3, r4, r5, r6, r7}
   8117a:	bc08      	pop	{r3}
   8117c:	469e      	mov	lr, r3
   8117e:	4770      	bx	lr

00081180 <__init_array_start>:
   81180:	00081031 	.word	0x00081031

00081184 <__frame_dummy_init_array_entry>:
   81184:	00080119                                ....

00081188 <_fini>:
   81188:	b5f8      	push	{r3, r4, r5, r6, r7, lr}
   8118a:	bf00      	nop
   8118c:	bcf8      	pop	{r3, r4, r5, r6, r7}
   8118e:	bc08      	pop	{r3}
   81190:	469e      	mov	lr, r3
   81192:	4770      	bx	lr

00081194 <__fini_array_start>:
   81194:	000800f5 	.word	0x000800f5

Disassembly of section .relocate:

20070000 <SystemInit>:
	EFC0->EEFC_FMR = EEFC_FMR_FWS(4);
20070000:	f44f 6380 	mov.w	r3, #1024	; 0x400
20070004:	4a20      	ldr	r2, [pc, #128]	; (20070088 <SystemInit+0x88>)
20070006:	6013      	str	r3, [r2, #0]
	EFC1->EEFC_FMR = EEFC_FMR_FWS(4);
20070008:	f502 7200 	add.w	r2, r2, #512	; 0x200
2007000c:	6013      	str	r3, [r2, #0]
	if (!(PMC->CKGR_MOR & CKGR_MOR_MOSCSEL)) {
2007000e:	4b1f      	ldr	r3, [pc, #124]	; (2007008c <SystemInit+0x8c>)
20070010:	6a1b      	ldr	r3, [r3, #32]
20070012:	f013 7f80 	tst.w	r3, #16777216	; 0x1000000
20070016:	d107      	bne.n	20070028 <SystemInit+0x28>
		PMC->CKGR_MOR = SYS_CKGR_MOR_KEY_VALUE | SYS_BOARD_OSCOUNT | 
20070018:	4a1d      	ldr	r2, [pc, #116]	; (20070090 <SystemInit+0x90>)
2007001a:	4b1c      	ldr	r3, [pc, #112]	; (2007008c <SystemInit+0x8c>)
2007001c:	621a      	str	r2, [r3, #32]
		while (!(PMC->PMC_SR & PMC_SR_MOSCXTS)) {
2007001e:	461a      	mov	r2, r3
20070020:	6e93      	ldr	r3, [r2, #104]	; 0x68
20070022:	f013 0f01 	tst.w	r3, #1
20070026:	d0fb      	beq.n	20070020 <SystemInit+0x20>
	PMC->CKGR_MOR = SYS_CKGR_MOR_KEY_VALUE | SYS_BOARD_OSCOUNT | 
20070028:	4a1a      	ldr	r2, [pc, #104]	; (20070094 <SystemInit+0x94>)
2007002a:	4b18      	ldr	r3, [pc, #96]	; (2007008c <SystemInit+0x8c>)
2007002c:	621a      	str	r2, [r3, #32]
	while (!(PMC->PMC_SR & PMC_SR_MOSCSELS)) {
2007002e:	461a      	mov	r2, r3
20070030:	6e93      	ldr	r3, [r2, #104]	; 0x68
20070032:	f413 3f80 	tst.w	r3, #65536	; 0x10000
20070036:	d0fb      	beq.n	20070030 <SystemInit+0x30>
 	PMC->PMC_MCKR = (PMC->PMC_MCKR & ~(uint32_t)PMC_MCKR_CSS_Msk) | 
20070038:	4a14      	ldr	r2, [pc, #80]	; (2007008c <SystemInit+0x8c>)
2007003a:	6b13      	ldr	r3, [r2, #48]	; 0x30
2007003c:	f023 0303 	bic.w	r3, r3, #3
20070040:	f043 0301 	orr.w	r3, r3, #1
20070044:	6313      	str	r3, [r2, #48]	; 0x30
	while (!(PMC->PMC_SR & PMC_SR_MCKRDY)) {
20070046:	6e93      	ldr	r3, [r2, #104]	; 0x68
20070048:	f013 0f08 	tst.w	r3, #8
2007004c:	d0fb      	beq.n	20070046 <SystemInit+0x46>
	PMC->CKGR_PLLAR = SYS_BOARD_PLLAR;
2007004e:	4a12      	ldr	r2, [pc, #72]	; (20070098 <SystemInit+0x98>)
20070050:	4b0e      	ldr	r3, [pc, #56]	; (2007008c <SystemInit+0x8c>)
20070052:	629a      	str	r2, [r3, #40]	; 0x28
	while (!(PMC->PMC_SR & PMC_SR_LOCKA)) {
20070054:	461a      	mov	r2, r3
20070056:	6e93      	ldr	r3, [r2, #104]	; 0x68
20070058:	f013 0f02 	tst.w	r3, #2
2007005c:	d0fb      	beq.n	20070056 <SystemInit+0x56>
	PMC->PMC_MCKR = (SYS_BOARD_MCKR & ~PMC_MCKR_CSS_Msk) | PMC_MCKR_CSS_MAIN_CLK;
2007005e:	2211      	movs	r2, #17
20070060:	4b0a      	ldr	r3, [pc, #40]	; (2007008c <SystemInit+0x8c>)
20070062:	631a      	str	r2, [r3, #48]	; 0x30
	while (!(PMC->PMC_SR & PMC_SR_MCKRDY)) {
20070064:	461a      	mov	r2, r3
20070066:	6e93      	ldr	r3, [r2, #104]	; 0x68
20070068:	f013 0f08 	tst.w	r3, #8
2007006c:	d0fb      	beq.n	20070066 <SystemInit+0x66>
	PMC->PMC_MCKR = SYS_BOARD_MCKR;
2007006e:	2212      	movs	r2, #18
20070070:	4b06      	ldr	r3, [pc, #24]	; (2007008c <SystemInit+0x8c>)
20070072:	631a      	str	r2, [r3, #48]	; 0x30
	while (!(PMC->PMC_SR & PMC_SR_MCKRDY)) {
20070074:	461a      	mov	r2, r3
20070076:	6e93      	ldr	r3, [r2, #104]	; 0x68
20070078:	f013 0f08 	tst.w	r3, #8
2007007c:	d0fb      	beq.n	20070076 <SystemInit+0x76>
	SystemCoreClock = CHIP_FREQ_CPU_MAX;
2007007e:	4a07      	ldr	r2, [pc, #28]	; (2007009c <SystemInit+0x9c>)
20070080:	4b07      	ldr	r3, [pc, #28]	; (200700a0 <SystemInit+0xa0>)
20070082:	601a      	str	r2, [r3, #0]
20070084:	4770      	bx	lr
20070086:	bf00      	nop
20070088:	400e0a00 	.word	0x400e0a00
2007008c:	400e0600 	.word	0x400e0600
20070090:	00370809 	.word	0x00370809
20070094:	01370809 	.word	0x01370809
20070098:	200d3f01 	.word	0x200d3f01
2007009c:	0501bd00 	.word	0x0501bd00
200700a0:	2007012c 	.word	0x2007012c

200700a4 <system_init_flash>:
__no_inline
RAMFUNC
void system_init_flash(uint32_t ul_clk)
{
	/* Set FWS for embedded Flash access according to operating frequency */
	if (ul_clk < CHIP_FREQ_FWS_0) {
200700a4:	4b1b      	ldr	r3, [pc, #108]	; (20070114 <system_init_flash+0x70>)
200700a6:	4298      	cmp	r0, r3
200700a8:	d915      	bls.n	200700d6 <system_init_flash+0x32>
		EFC0->EEFC_FMR = EEFC_FMR_FWS(0);
		EFC1->EEFC_FMR = EEFC_FMR_FWS(0);
	} else if (ul_clk < CHIP_FREQ_FWS_1) {
200700aa:	4b1b      	ldr	r3, [pc, #108]	; (20070118 <system_init_flash+0x74>)
200700ac:	4298      	cmp	r0, r3
200700ae:	d919      	bls.n	200700e4 <system_init_flash+0x40>
		EFC0->EEFC_FMR = EEFC_FMR_FWS(1);
		EFC1->EEFC_FMR = EEFC_FMR_FWS(1);
	} else if (ul_clk < CHIP_FREQ_FWS_2) {
200700b0:	4b1a      	ldr	r3, [pc, #104]	; (2007011c <system_init_flash+0x78>)
200700b2:	4298      	cmp	r0, r3
200700b4:	d91e      	bls.n	200700f4 <system_init_flash+0x50>
		EFC0->EEFC_FMR = EEFC_FMR_FWS(2);
		EFC1->EEFC_FMR = EEFC_FMR_FWS(2);
	} else if (ul_clk < CHIP_FREQ_FWS_3) {
200700b6:	4b1a      	ldr	r3, [pc, #104]	; (20070120 <system_init_flash+0x7c>)
200700b8:	4298      	cmp	r0, r3
200700ba:	d923      	bls.n	20070104 <system_init_flash+0x60>
		EFC0->EEFC_FMR = EEFC_FMR_FWS(3);
		EFC1->EEFC_FMR = EEFC_FMR_FWS(3);
	} else if (ul_clk < CHIP_FREQ_FWS_4) {
200700bc:	4b19      	ldr	r3, [pc, #100]	; (20070124 <system_init_flash+0x80>)
200700be:	4298      	cmp	r0, r3
		EFC0->EEFC_FMR = EEFC_FMR_FWS(4);
200700c0:	bf94      	ite	ls
200700c2:	f44f 6380 	movls.w	r3, #1024	; 0x400
		EFC1->EEFC_FMR = EEFC_FMR_FWS(4);	
	} else {
		EFC0->EEFC_FMR = EEFC_FMR_FWS(5);
200700c6:	f44f 63a0 	movhi.w	r3, #1280	; 0x500
200700ca:	4a17      	ldr	r2, [pc, #92]	; (20070128 <system_init_flash+0x84>)
200700cc:	6013      	str	r3, [r2, #0]
		EFC1->EEFC_FMR = EEFC_FMR_FWS(5);
200700ce:	f502 7200 	add.w	r2, r2, #512	; 0x200
200700d2:	6013      	str	r3, [r2, #0]
200700d4:	4770      	bx	lr
		EFC0->EEFC_FMR = EEFC_FMR_FWS(0);
200700d6:	2300      	movs	r3, #0
200700d8:	4a13      	ldr	r2, [pc, #76]	; (20070128 <system_init_flash+0x84>)
200700da:	6013      	str	r3, [r2, #0]
		EFC1->EEFC_FMR = EEFC_FMR_FWS(0);
200700dc:	f502 7200 	add.w	r2, r2, #512	; 0x200
200700e0:	6013      	str	r3, [r2, #0]
200700e2:	4770      	bx	lr
		EFC0->EEFC_FMR = EEFC_FMR_FWS(1);
200700e4:	f44f 7380 	mov.w	r3, #256	; 0x100
200700e8:	4a0f      	ldr	r2, [pc, #60]	; (20070128 <system_init_flash+0x84>)
200700ea:	6013      	str	r3, [r2, #0]
		EFC1->EEFC_FMR = EEFC_FMR_FWS(1);
200700ec:	f502 7200 	add.w	r2, r2, #512	; 0x200
200700f0:	6013      	str	r3, [r2, #0]
200700f2:	4770      	bx	lr
		EFC0->EEFC_FMR = EEFC_FMR_FWS(2);
200700f4:	f44f 7300 	mov.w	r3, #512	; 0x200
200700f8:	4a0b      	ldr	r2, [pc, #44]	; (20070128 <system_init_flash+0x84>)
200700fa:	6013      	str	r3, [r2, #0]
		EFC1->EEFC_FMR = EEFC_FMR_FWS(2);
200700fc:	f502 7200 	add.w	r2, r2, #512	; 0x200
20070100:	6013      	str	r3, [r2, #0]
20070102:	4770      	bx	lr
		EFC0->EEFC_FMR = EEFC_FMR_FWS(3);
20070104:	f44f 7340 	mov.w	r3, #768	; 0x300
20070108:	4a07      	ldr	r2, [pc, #28]	; (20070128 <system_init_flash+0x84>)
2007010a:	6013      	str	r3, [r2, #0]
		EFC1->EEFC_FMR = EEFC_FMR_FWS(3);
2007010c:	f502 7200 	add.w	r2, r2, #512	; 0x200
20070110:	6013      	str	r3, [r2, #0]
20070112:	4770      	bx	lr
20070114:	0121eabf 	.word	0x0121eabf
20070118:	02faf07f 	.word	0x02faf07f
2007011c:	03d08fff 	.word	0x03d08fff
20070120:	04c4b3ff 	.word	0x04c4b3ff
20070124:	055d4a7f 	.word	0x055d4a7f
20070128:	400e0a00 	.word	0x400e0a00

2007012c <SystemCoreClock>:
2007012c:	003d0900                                ..=.

20070130 <xNextTaskUnblockTime>:
20070130:	ffffffff 00000000                       ........

20070138 <impure_data>:
20070138:	00000000 20070424 2007048c 200704f4     ....$.. ... ... 
	...
200701e0:	00000001 00000000 abcd330e e66d1234     .........3..4.m.
200701f0:	0005deec 0000000b 00000000 00000000     ................
	...

20070560 <__atexit_recursive_mutex>:
20070560:	200706bc                                ... 
